:100000000020001001030000150800001D0800007A
:1000100000000000000000000000000000000000E0
:1000200000000000000000000000000025080000A3
:1000300000000000000000002D080000350800004E
:100040003D08000045080000000000004D080000C9
:10005000550800005D080000000000006D08000069
:1000600065080000850800008D0800009508000064
:100070009D080000A5080000AD080000B5080000BC
:10008000BD080000C5080000CD080000D50800002C
:10009000DD080000750800007D0800000000000079
:1000A000E5080000ED080000F5080000FD0800006C
:1000B000050900000D090000150900001D090000D8
:1000C00010B5024B1B68984710BDC04600000010D9
:1000D00010B5024B1B68984710BD000004000010CB
:1000E00041200000006165616269000116000000A6
:1000F00005436F727465782D4D3000060C074D096D
:1001000001FFFFFFFFFFFFFFFFFFFFFFFFFFFFFFFD
:10011000FFFFFFFFFFFFFFFFFFFFFFFFFFFFFFFFEF
:10012000FFFFFFFFFFFFFFFFFFFFFFFFFFFFFFFFDF
:10013000FFFFFFFFFFFFFFFFFFFFFFFFFFFFFFFFCF
:10014000FFFFFFFFFFFFFFFFFFFFFFFFFFFFFFFFBF
:10015000FFFFFFFFFFFFFFFFFFFFFFFFFFFFFFFFAF
:10016000FFFFFFFFFFFFFFFFFFFFFFFFFFFFFFFF9F
:10017000FFFFFFFFFFFFFFFFFFFFFFFFFFFFFFFF8F
:10018000FFFFFFFFFFFFFFFFFFFFFFFFFFFFFFFF7F
:10019000FFFFFFFFFFFFFFFFFFFFFFFFFFFFFFFF6F
:1001A000FFFFFFFFFFFFFFFFFFFFFFFFFFFFFFFF5F
:1001B000FFFFFFFFFFFFFFFFFFFFFFFFFFFFFFFF4F
:1001C000FFFFFFFFFFFFFFFFFFFFFFFFFFFFFFFF3F
:1001D000FFFFFFFFFFFFFFFFFFFFFFFFFFFFFFFF2F
:1001E000FFFFFFFFFFFFFFFFFFFFFFFFFFFFFFFF1F
:1001F000FFFFFFFFFFFFFFFFFFFFFFFFFFFFFFFF0F
:10020000FFFFFFFFFFFFFFFFFFFFFFFFFFFFFFFFFE
:10021000FFFFFFFFFFFFFFFFFFFFFFFFFFFFFFFFEE
:10022000FFFFFFFFFFFFFFFFFFFFFFFFFFFFFFFFDE
:10023000FFFFFFFFFFFFFFFFFFFFFFFFFFFFFFFFCE
:10024000FFFFFFFFFFFFFFFFFFFFFFFFFFFFFFFFBE
:10025000FFFFFFFFFFFFFFFFFFFFFFFFFFFFFFFFAE
:10026000FFFFFFFFFFFFFFFFFFFFFFFFFFFFFFFF9E
:10027000FFFFFFFFFFFFFFFFFFFFFFFFFFFFFFFF8E
:10028000FFFFFFFFFFFFFFFFFFFFFFFFFFFFFFFF7E
:10029000FFFFFFFFFFFFFFFFFFFFFFFFFFFFFFFF6E
:1002A000FFFFFFFFFFFFFFFFFFFFFFFFFFFFFFFF5E
:1002B000FFFFFFFFFFFFFFFFFFFFFFFFFFFFFFFF4E
:1002C000FFFFFFFFFFFFFFFFFFFFFFFFFFFFFFFF3E
:1002D000FFFFFFFFFFFFFFFFFFFFFFFFFFFFFFFF2E
:1002E000FFFFFFFFFFFFFFFFFFFFFFFFFFFFFFFF1E
:1002F000FFFFFFFFFFFFFFFFFFFFFFFF21436587BA
:100300008E4BF0B51B688FB01A698D4B116852681F
:1003100019605A608021A0238E221B064900920199
:10032000995001221A7200F0FDF98649864B5B1A3A
:100330009B101A1C002A05DD00255442C8180555DB
:10034000013AF7E78021814A8148D36FC90203400F
:100350000B43802101250427D367D36F7D4E0340D3
:100360000B43D3677C4B7F311D607C4B1C688C43F7
:100370003C431C601C69A4466746794C3C40D0272E
:100380007F033C43C0271C61DC687F052402240AEC
:100390003C43DC601C69A4466746724C3C40C8275D
:1003A0007F013C430F271C611C698C433C431C614B
:1003B000D46F6D4B0B3F2340D367D36F6B4C18400A
:1003C00080231B011843D0677268694B694813404A
:1003D00073607268684B13402B43736082232268FA
:1003E000FF3313402360BE232268FF3313401F43B3
:1003F000F0231B0327602362B36F1940FFF768FEE9
:100400005E49FFF765FE002800D1281C01386062B4
:100410005648B36F636A00F075F9594D594B5A4C01
:10042000AB6008232C60AB8200F05AF95023237094
:100430004F3B2B6100F094F900F0B8F80028FBD195
:1004400001232370DB1860702B6100F089F900F044
:10045000ADF80028FBD1002206ABC25401302028A1
:10046000F9D1F020042100036A4600F0B3F84748B0
:10047000042101AA00F0AEF8019B013307D00098D7
:10048000431C04D000F0C8F8019B984202D0404BB6
:10049000984751E00224F82380219B00E518AD0223
:1004A000281CC9003B4A00F095F872B632273A4E34
:1004B00001A806A9019702940394B047342301933D
:1004C000364B01A8049306A902940394B04701A8EF
:1004D00006A9019702940394B04733230193304B4C
:1004E00001A8ED182B4B029503938023DB000493A6
:1004F0002A4B06A90593B04762B6013400F012F901
:10050000202CC8D100F0ECF80F221F4B5A700022AB
:100510001C709A70DA701A4B04321A6100F020F9DC
:1005200000F044F80028FBD1BFF34F8F1D4A1E4B4B
:10053000DA60BFF34F8FFEE7FEE7C046F81FFF1FEC
:100540000000001008000010A40C001004800440FB
:10055000FFFFEF25008004409480044000C000406D
:10056000FFFF00FFFF00FFFF7FFFEF25008005403A
:10057000FEDF0100001BB700FFDF0100A0860100C5
:100580008C0C0010880400100804001004000F00F8
:100590002509000008000010F11FFF1FE02E0000D9
:1005A0000080F0FF0400FA0500ED00E0052208B528
:1005B000054B1A70054B033A1A6100F0D1F8044B51
:1005C00058780123184008BD080400108C0C001056
:1005D0008804001038B5151C03220C4B0C4C1A7003
:1005E000020C5A700431020A9A70D870216100F02E
:1005F000B7F804232269934207D2064AD15CEA186D
:10060000043A013311709BB2F4E738BD08040010BE
:100610008C0C001088040010F0B50022071C2B4C35
:10062000A544082113065800002B02DA284B43404A
:1006300000E0031C0139C9B20029F4D1254E900015
:10064000311D43508023013201965B009A42E8D16C
:1006500001253C1C6D42F8231B03F818001B002CDD
:1006600026D0802102AAC900FFF7B4FF00221A4B4E
:10067000E41800200721844602AB9B5C0120034262
:1006800003D0664688400643B4465B080139F5D27C
:1006900061462B0E5940CBB201999B00CB185B6889
:1006A0002D025D4080230132DB009A42E1D1D2E786
:1006B0001F230122154201D09A4014436D08013BCB
:1006C000F7D2E043054B9D44F0BDC046F4FBFFFF6D
:1006D000B71DC1048808001000FCFFFF0C040000D7
:1006E000062208B5054B1A70054B053A1A6100F051
:1006F00037F8FFF75BFF0028FBD108BD08040010A6
:100700008C0C0010DE23064A5B0011680B4013605E
:10071000BE231168FF330B4001210B431360704768
:1007200000800540032382B080208C22A02192010A
:100730004000090688500022019200920099074A61
:10074000914205D8019A01320192009A0132F4E7F0
:10075000013B002BE8D102B07047C0463F0D0300BB
:100760003C23F7B50F20244A9360244B197D0139AF
:100770000140802009068003014311620021D960F5
:10078000596058681D69A8422AD296681A4FB10765
:100790001AD5A84218D2691E884210D1C0241968FF
:1007A000A403095C214301911C7D013CA4460F2454
:1007B00061460C40019924062143B96102E01968A1
:1007C000095CF96101305860F107DAD5D968A942AE
:1007D000D7D250699C686054D9680131D960D0E79C
:1007E000D968A942D1D30C2392681A40534253418D
:1007F0005B421840FEBDC046008005408C0C0010D6
:10080000087C0000080000101C00000024000010FC
:10081000F00A000008B500F028F908BD08B500F09E
:1008200020F908BD08B500F018F908BD08B500F0BA
:1008300010F908BD08B505F097F808BD08B502F035
:1008400039FD08BD08B503F0BDF808BD08B504F0D2
:1008500033FF08BD08B503F0F7FB08BD08B503F08A
:1008600057FC08BD08B502F0AFFA08BD08B500F0A6
:100870009DF808BD08B500F0E8F808BD08B500F01F
:10088000E0F808BD08B500F0D8F808BD08B500F0DC
:10089000D0F808BD08B500F0C8F808BD08B500F0EC
:1008A000C0F808BD08B500F0B8F808BD08B500F0FC
:1008B000B0F808BD08B500F0A8F808BD08B500F00C
:1008C000A0F808BD08B500F098F808BD08B500F01C
:1008D00090F808BD08B500F088F808BD08B500F02C
:1008E00080F808BD08B505F0B3F808BD08B505F0F7
:1008F000CDF808BD08B505F0C5F808BD08B500F08D
:100900006CF808BD08B500F064F808BD08B500F043
:100910005CF808BD08B500F054F808BD08B500F053
:100920004CF808BD38B5194B194A93420BD2002236
:1009300018685C6899688A4203D2155815510432C8
:10094000F9E70C33F0E7134B134A93420AD2002223
:10095000186859688A4203D2002414500432F9E717
:100960000833F1E70D480E4A0021121A921005F0E3
:1009700043FC0C480C4A0021121A921005F03CFC72
:1009800005F0BAF805F03CFC38BDC0460008000090
:100990000C0800000C08000014080000140B0010E4
:1009A00032130010140B0010D812001008B502F01A
:1009B000FDF908BD80B500AFFEE708B5FFF7FAFF07
:1009C00008BD08B5FFF7F6FF08BD08B5FFF7F2FF51
:1009D00008BD08B5FFF7EEFF08BD08B5FFF7EAFF51
:1009E00008BD08B5FFF7E6FF08BD08B5FFF7E2FF51
:1009F00008BD08B5FFF7DEFF08BD08B5FFF7DAFF51
:100A000008BD08B5FFF7D6FF08BD08B5FFF7D2FF50
:100A100008BD08B5FFF7CEFF08BD08B5FFF7CAFF50
:100A200008BD08B5FFF7C6FF08BD08B5FFF7C2FF50
:100A300008BD08B5FFF7BEFF08BD08B5FFF7BAFF50
:100A400008BD08B5FFF7B6FF08BD08B5FFF7B2FF50
:100A500008BD08B5FFF7AEFF08BD08B5FFF7AAFF50
:100A600008BD08B5FFF7A6FF08BD08B5FFF7A2FF50
:100A700008BD0000F0B5C1B005F044F8EA4B6421B0
:100A80001868FFF725FBE94B013898420DD8E84A72
:100A9000E8495060C0200B6A00061B021B0A034392
:100AA0000B62002393600733136080260124E24F1A
:100AB000E24AFB6F002013403343FB67E04B042105
:100AC0001C6005F059FA201C002105F055FA112090
:100AD000122105F051FA12200B2105F04DFA2220C7
:100AE0001B2105F049FA2320102105F045FA422088
:100AF0001A2105F041FA3320182105F03DFA412072
:100B0000192105F039FA40200F2105F035FA91201E
:100B1000062105F031FA0721922005F02DFAFA6F2F
:100B2000C84BC94D13400022FB67C84B281C1A70E4
:100B3000C74B31331A7005F077FA2B68C54AE120AC
:100B40001340042213432B60211C400305F046F898
:100B5000E121281C490205F0CDFA2B68BE4ABF49A5
:100B6000134023432B606B68BD4ABE4813406B6043
:100B70008023221C9B0005F08DF8221C331CBA49EF
:100B8000BA4805F087F8C022EC608025B84B920087
:100B90009B58ED051B02B6491B0A2B438B500822BC
:100BA000B44E0A60301C05F03FFA3368A94AE121CF
:100BB0001340042213433360301C490205F09AFAB3
:100BC0003368A54AAC491340234333607368A44A91
:100BD000AA48134073608023221C9B0005F05AF83A
:100BE0008023221CA6495B00A64805F053F810227A
:100BF0009F4BF4601A601123A34EEE32F367A34BB0
:100C0000A34819680A401A609C605C618023984A76
:100C10005B0413600021042205F0EEFA152004F0B5
:100C200087FC132004F084FC082004F081FC0A20D7
:100C300004F07EFC02237365726D0D3313401022A5
:100C400013437365FB6F7D4A924E1340802212015D
:100C50001343FB67904B91495A68914B301C1340EA
:100C60008D4A536052688F4B13408B4A2343536025
:100C700082233268FF3313403360BE233268FF3370
:100C80001340042213433360F0231B03336205F047
:100C9000BCF83D23844AF360844B3F265A60744B72
:100CA0001C6002F01BF9011C814804F0B5FD08200E
:100CB00002F070F9784B40205E6205F081F904F093
:100CC0003DFF071C281C05F079FA962302225B00E1
:100CD000BF085F436F602B68334013432B602B6862
:100CE0001E40AA2334432C60AB60553BAB6002F03E
:100CF000C7FA0024201C042101AA02F09FFA019BDC
:100D000001330CD180235B01E41880235B039C42F8
:100D1000F0D1684804F0F4FC02F0DAFA02E0664828
:100D200004F0EEFC8222654C0021D200201C05F06C
:100D300063FAEB2004210003221C02F07FFA604DCD
:100D40002368AB4201D9002323605E48216804F088
:100D500029FDEC20042100035B4A02F06FFA63686E
:100D6000AB4202D980235B01636061685748A16090
:100D700004F018FD082002F00DF95548554904F01B
:100D80004BFD03F0ABFBED20534C00030421221C70
:100D900002F054FA2368013301D1002323604F4845
:100DA00004F0AEFC206804F095FC4D4804F0A8FC6B
:100DB00001224C490B7813430B70A0231B06597C6E
:100DC000494B002900D000225A701A7004F0D4FD5B
:100DD000464C4749474B002806D0012222700A7032
:100DE0009A701A705A7004E0207008709870187029
:100DF0005870A0231B069B7D3F4ADBB23F48404909
:100E0000002B00D001230370537013700B7004F09B
:100E1000BAFD01A802F032FB04F0AEFD394B002808
:100E200072D001221A7770E0100B0010FFFFFF0054
:100E300010E000E000ED00E004800440FFFFEF253B
:100E4000948004407FFFEF2500400640C40200105C
:100E5000DC04001001DAFC007CDAFC002400001045
:100E600006030100D409001024020010C00900107C
:100E700000E100E000800640F0060010DC060010F3
:100E8000C5020010C8060010FC800440004000A00D
:100E9000F00A00100080054000800440A086010098
:100EA000FEDF0100FFDF0100500F0000F808001016
:100EB00014050010640F0000710F0000500C0010AA
:100EC000FF0F0E00820F0000540C0010950F000061
:100ED000D0040010407E050094060010A70F00000B
:100EE0007D3C0000A4020010F40A00102D06001042
:100EF0002C0600101C06001074060010710600106D
:100F000070060010500600101877642500243C99E4
:100F1000181C69439C6104F07FFC094B291C09489B
:100F20001C779C6104F078FC03F000F900F03EF8B7
:100F3000BFF34F8F044A054BDA60BFF34F8FFEE7D4
:100F4000300600103C0600100400FA0500ED00E039
:100F5000872E0000852E0000832E0000812E0000C9
:100F6000752E0000466C61736820656D7074790A97
:100F700000466C617368206E6F7420656D707479C3
:100F80000A000A4C6F6720577269746520416464D7
:100F900072203078000A4C6F6720526561642041EE
:100FA000646472203078004B6D3A2000F0B5DB4C61
:100FB000DB48A54404F0A4FBA0230122D94C1B0666
:100FC0009A720A20211C03F0DFFE03F0EEFED649E0
:100FD000D64804F021FCD64804F092FBD54804F032
:100FE0008FFB0194D14C201C04F0F8FB251C002839
:100FF00001D000F067FFD04ED0493768381C06F0AA
:10100000D5FD00281DD0CD49381C06F073FC30609A
:1010100056A803F04DF8CA4B186806F04DFB0022A5
:10102000061C0F1C5A985B99C64B06F069F8021C07
:101030000B1C301C391C06F0F7F906F0E9FA02F037
:1010400001FA01F077F98023AA22DB05207B9A6060
:10105000553A9A600628C5D806F0CEFD07003E0036
:10106000CD015D025003E005AA018023B6490122AB
:101070009B00B64804F00EFE291C802301225B0071
:101080000D31B34804F006FEB248B34903F00AFF3D
:10109000FA22019B2021520056A803F029FF56A8EE
:1010A000AE4905F0DDFCAE4B002804D000225A7397
:1010B0009A73012318E19A7B0132D2B29A73052AFE
:1010C00001D100F05AFD5A7B511C5973052A89D170
:1010D000587303F06AFE85E7FA210022A14B16A897
:1010E000313389001A7004F097FB16A804F076FBE0
:1010F000984D002812D0281C9B490D3003F0D2FED9
:10110000C02156A8C822019B03F0F2FE934F56A8B7
:10111000391C05F0A5FC002813D1F1E0281C9349E7
:10112000643003F0BFFE802156A849006422019B71
:1011300003F0DEFE56A8894905F092FC0028DAD1BA
:10114000DEE0281C8A4E6830311C03F0ABFE8021A3
:101150006422019B56A803F0CBFE391C56A805F06B
:101160007FFC029656A9002800D1C9E00E78002E17
:1011700010D0804B9E19803633789B0608D50F22FD
:101180007D4805F035F80022764B01265A7701E0BC
:101190000131EBE7794804F0B3FA774804F0B0FA8C
:1011A000774804F0ADFA002E00D1A9E0FA2116A884
:1011B000890004F031FB012616A804F00FFB071E7E
:1011C00043D1281C6F49713003F06CFE402164222A
:1011D000019B56A803F08CFE291C56A87B3105F014
:1011E0003FFC3E1C0028E7D0674F0299781C03F0B3
:1011F00059FE402156A86422019B03F079FE56A8AF
:10120000564905F02DFC00287AD0A1215F4E06AB8F
:101210004900C918301C0F2204F0EAFF514B00218D
:101220001A1C01252D323133594811701D7004F0FC
:1012300067FA301C04F064FA514804F061FAFA21AC
:1012400016A8890004F0E8FA14E0002E58D0CBE785
:101250004D4802990A3003F025FE40216422019B8B
:1012600056A803F045FE56A83C4905F0F9FB351C8D
:10127000002806D116A804F0B1FA061EE8D0002D09
:101280003ED016A8434904F0C7FA13E0381C42497F
:101290001D3003F007FE019B4021642256A803F095
:1012A00027FE56A803F052FD2E4D2B1C2E331B7823
:1012B000002B05D116A804F091FA061EE6D01FE017
:1012C000364804F01DFA264B2F355E7303F064FF99
:1012D0002B78002B07D0324BD4331B78002B05D052
:1012E000304804F00DFA022323737BE62E4804F005
:1012F00007FA96212D48490004F08EFA0623F3E7F9
:10130000174A537B591C5173192B00D06AE60023EE
:10131000134A5373054A137364E6C0469CFDFFFFEE
:10132000E91F00003523000080FC0A00B80200100D
:10133000FB1F00007D3C0000480C001000606A4666
:101340009406001000408F40F0060010DC060010EC
:10135000C8060010EC1E0000112000009F5A00007B
:10136000B8030010DC04001025200000332000002A
:101370007F3C00007C630000EA0400104120000074
:101380007E3C0000492000006C1F0000FA040010A1
:1013900054200000E02E00005C2000007A200000B5
:1013A000200500108620000097200000BC060010D9
:1013B000B54D281C04F012FA002800D112E6B348FB
:1013C00004F09EF903F0E8FEB14B1A1C2F3212789C
:1013D000002A0AD0AF4BD4331B78002B83D196213F
:1013E000281C490004F018FAFCE52E331B78002B6A
:1013F00000D078E778E716A802F040F880220021B4
:10140000520056A804F0F8FEA34956A8273105F06B
:1014100075FA16A956A805F071FAA04956A805F064
:101420006DFA56A89E4903F03DFD20210EA86422C6
:10143000019B03F05DFD9B4D0EA8291C05F010FBE0
:10144000002800D117E1984804F05AF90BA89749F1
:1014500004F0E2F90BA804F0C1F9011E00D00AE182
:10146000802256A8520004F0C7FE8B4956A83B3193
:1014700005F044FA1CA956A805F040FA8C4956A874
:1014800005F03CFA1FA956A805F038FA834956A87A
:1014900005F034FA56A8824903F004FDFA2220210F
:1014A0000EA89200019B03F023FD0EA8814905F0D0
:1014B000D7FA002810D000257F4804F021F97F4892
:1014C00004F01EF97E4B56A85D7301F0D7FF7D4BEB
:1014D0001A78AA4215D00DE00EA8291C05F0C0FA12
:1014E0000028E8D103F058FE694B2E331B78002BFF
:1014F000B0D1C0E01D7004F067F80523002800D0CB
:10150000F2E662A9704805F033FA704882A905F046
:101510002FFA0323E8E6604D614F281C391C4A303E
:1015200003F0C0FC80216422019B56A803F0E0FC7C
:101530005C4E56A8311C05F093FA654C002801D189
:1015400000258BE0281C391C653003F0ABFC202102
:1015500056A86422019B03F0CBFC56A8311C05F071
:101560007FFA0028ECD004F02FF8051E76D0544EF8
:101570000023351CF3730F3556A803F0B1FC281C6B
:10158000544905F0BBF9A72106AB4900C918281C2E
:1015900005F0B4F9281C504905F0B0F9AF2106ABAD
:1015A0004900281CC91805F0A9F9FF224B4B351C2E
:1015B000186B1A6301380F281DD806F015FB080CAC
:1015C0001C101C1C1C141C1C1C1C1C1C1C18301C5F
:1015D00043490F3012E0301C42490F300EE0301CFE
:1015E00041490F300AE0301C40490F3006E0301C02
:1015F0003F490F3002E0281C3E490F300F3505F0FF
:101600007DF93D49281C05F079F9281C05F0D2F92F
:10161000019A81B2281C03F0BDFE0121281C01F0B3
:101620007CFA019A81B2281C03F0B4FE00280CD089
:10163000214804F065F80122154B30331A7000235D
:10164000737303F011FC042312E0737B052B02D0AB
:10165000013373730FE0707320730CE0194B1A7829
:10166000002A08D01D7003F0AFFF002802D0052328
:10167000237300E02573124A537B591C5173052BC9
:1016800000D0AFE443E6C046BC060010AC2000002A
:10169000DC040010200500106C1F0000C7200000B3
:1016A0007F3C00009F5A0000CA2000007017000015
:1016B000DA200000DE20000006220000E520000005
:1016C000B80300109006001035090010B50900108D
:1016D000B8020010F7200000FB1F0000008004404B
:1016E000FC200000042100000C2100001421000057
:1016F0001C210000242100002F2100009B4E1222FB
:101700000EA8311C04F074FD212206AB9B181B7837
:10171000032B14D106AB013A9B181B78012B0ED179
:10172000934C0F34201C02F02BF9019A81B2201C3B
:1017300003F030FE002800D13BE2002373708D4B94
:101740001B68002B16D08A4C01210F34201C01F09D
:10175000E4F9019A81B2201C03F01CFE002800D19C
:1017600027E2281C844904F057F88448844904F08F
:1017700053F80123834C0293201C04F02FF8002817
:1017800020D0814803F0BCFF794E01210F36301C78
:1017900001F0C3F9019A81B2301C03F0FBFD00286F
:1017A00000D106E203F01AFB011C201C04F034F8FF
:1017B0007248734904F030F8281C6F4904F02CF883
:1017C000012302936D4C201C04F008F800281AD065
:1017D0006E4803F095FF664E6D490F36301C01F0E0
:1017E000C3FA019A81B2301C03F0D4FD002800D165
:1017F000DFE1201C624904F00FF8281C5E4904F068
:101800000BF801230293634803F0E8FF002800D19E
:1018100052E10BA8052103F0FFFF0BA803F0DEFF48
:10182000041E00D043E15C4B06AA5C4D9B18DC70A3
:101830006A682B68934200D139E18022211C520052
:1018400056A804F0D9FC211C08A8092204F0D4FCF5
:1018500069682C684B1CFF338C4202D9A34208D91B
:1018600003E04F4A934204D9E124641AA4B2FF2C46
:1018700001D98024640016AE4A4803F093FF321C5D
:10188000211C686801F0DAFC0221301C05F043F8E5
:1018900003210390301C05F03EF8039B071C002B2E
:1018A0003FD0002851D0834207D99E1B6B683E4829
:1018B000F6186E6003F024FF83E00026041F211C4D
:1018C000067006A805F054F8039B26705C1C201CCB
:1018D00005F070F881B2201C03F0D3FE011C08A8AB
:1018E00003F04CFF06A809A905F020F82A4D06AB25
:1018F000ED18B04209D156A8211C05F039F8012392
:101900002A48EB7003F0FCFE03E0294803F0F8FEE0
:10191000EE70224B5A68501C039ABF1AC7195F60B9
:101920004FE0002808D1234803F0EAFE402306AA2E
:10193000FF339B181F7041E06B461B7BBE1B03707F
:101940006B68581C86196E603BE01B4803F0D8FE9C
:1019500003980221013004F0DEFF00282ED0431E40
:101960001F706B68801BC01868602AE0680A00104E
:10197000B8030010F00A001080FC0A00980600105E
:1019800030750000B0060010312100004621000033
:10199000EA040010A40600103F020000500C0010E2
:1019A000FF0F0E0058210000642100006B21000091
:1019B000742100007D210000842100006B68E41880
:1019C0006C60DA4B5A68111ED94A914201D9002243
:1019D0005A601A685B689A4201D101F0F9FAD54B56
:1019E00006AA9B18DB78002B00D116E78022D24C88
:1019F00000210F345200201C04F0FEFB201C56A9CD
:101A000004F0B6FF201C04F0D5FF00284FDDCB48C2
:101A100003F076FE80220021520056A804F0ECFB71
:101A2000C74F201C391C05F01BF8039000283ED03E
:101A3000201CC44905F014F8061E38D0C24D281CDD
:101A400004F0B8FF0F2832D1391C56A804F056FF15
:101A50000023291C337056A804F050FF039956A8A0
:101A6000023104F04BFF56A800F0FEFE56A81321E9
:101A700000F002FFB34956A804F040FF56A9201C0D
:101A800004F076FF201C04F095FF019A81B2201C1F
:101A900003F080FC002800D18BE0AC48AC4903F097
:101AA000BBFEAC48AC4903F0B7FE01230293FA2118
:101AB000AA48890003F0B0FEA94C201C03F08EFE5A
:101AC000A44E002872D0A74803F01AFE03F064FB6E
:101AD000A54B022802D01F78002F0CD000216420D3
:101AE000197003F051F903F02BFC03F06DFD002891
:101AF00000D081E05DE09D4B1B89002B41D080210F
:101B00008D4D49000F35281C019A03F08BFA0028EF
:101B100037D00222391CFF3256A804F06DFB281C76
:101B200056A9012201F010FC01280DD156A803F09E
:101B3000E7FD56A804F03EFF019A81B256A803F0D3
:101B400029FC002808D134E0022805D103F0F8FB75
:101B500003F03AFD00284FD1301C7F4903F05CFEB2
:101B60007A487B4903F058FE724B06AA9B185B78B3
:101B7000002B04D07E4803F0C3FD02F073FA01236A
:101B800002937C4B1A68FA235B009A4211DC774B74
:101B90001A1C2E321278002A0BD030331B78002BFF
:101BA00007D09621201C490003F036FE029B01332A
:101BB00018D1614A6D4C537B591C5173052B06D1CA
:101BC00000235373634A30342370137316E003F019
:101BD0004BF9694803F094FD0022A3896381654BAA
:101BE0001A600BE0029B012B03D10022524B5A7367
:101BF00004E0029B042B01D1052333735B4B2F338D
:101C00001B78002B01D1FFF7EDF95C4BD4331B7827
:101C1000002B01D0FFF7E6F9FFF779FB01235848C5
:101C2000036104F049FA5748574A0021121A9210EA
:101C300004F0E2FA00231F1C1C1C1E1C534A1380D4
:101C4000534A13808025AA23ED05AB60553BAB605A
:101C5000002E18D14323422056AD2B70FF3006AB27
:101C6000C018394904F084FE281C04F0A3FE321C7D
:101C700081B2281C03F08EFB16A8464903F0CCFD68
:101C80000723049315E0022EDCD106A803F048FDDB
:101C90000190002800D1F4E0002C00D080E006ABD9
:101CA0001D78012D07D1FA2116A8C90003F0B4FD53
:101CB0002C1C0226C6E7042D00D05EE703F040FB93
:101CC0000EAD2819013403F02BFD082CF8D12E7825
:101CD0006B7836061B041E43EB782F481E43AB7807
:101CE0001B021E432B791A066B791B041343EA79F6
:101CF0001A43AB791B021A43151C03F001FD0020A7
:101D000008960B9501F046F9F02208A80421120369
:101D100001F0FCF80421214A0BA801F0F7F8201C7F
:101D200001F038F9002001F035F926E7500C0010D9
:101D3000FF0F0E003F020000B80300108B210000CF
:101D4000962100002F210000EA04001098060010E0
:101D500030750000B802001080FC0A00A4060010D4
:101D6000BC0600109921000090060010DC04001051
:101D7000AA210000F0080010BA2100002005001080
:101D800000C00640140B001032130010160F001094
:101D9000140F001010270000DF21000004000F00C6
:101DA000012C03D106AB1F78341C82E7022C06D12C
:101DB00006AA3B0212789BB213431F1C5FE0434A02
:101DC000434B944204D106AA12781C1C059270E77A
:101DD0009C424ED18021059B06AA12781B023D4CE5
:101DE0009BB21343201CC900059303F04AFC059BDA
:101DF000984226D12021062306AA521813701F39B3
:101E000000220EA803F0C6FAAA23AB60553BAB60D4
:101E1000314803F075FC381C03F05CFC002001F035
:101E2000B9F880212D4BC900FA189202201C01F04C
:101E30006DF8082001F0AEF8294803F061FC002499
:101E400037E7049B5C1EA4B2002B00D195E620214D
:101E5000152306AA52182348137003F051FC0EA84C
:101E60000121002203F096FA6420002102F08CFF89
:101E700026E0184B06AA1B191278033B1A7001348E
:101E800017E716A803F0AAFC002800D111E7AA233F
:101E9000AB60553BAB60049B5C1EA4B2002B00D131
:101EA0006BE6114803F02CFC15230EA80121019AC2
:101EB000037003F06FFAFA2116A8C90003F0ACFC16
:101EC0000494BCE799239B009D44F0BD03040000EB
:101ED00004040000140B0010F4210000DF030000D4
:101EE000052200000C2200001E22000041542B435A
:101EF00046554E3D312C310D00415445303B2B436E
:101F00004D45453D313B23534C45443D323B2B43EE
:101F10005245473D303B2B43475245473D303B2BD5
:101F200043494E443D302C302C302C302C302C305A
:101F30002C302C302C303B2B434E4D493D322C3134
:101F40002C302C302C303B2B434D47463D310D007F
:101F500041540D0041542B4347534E0D0041542B27
:101F60004350494E3F0D0052454144590041542BC6
:101F700043494D490D0041542B434D45523D322CB0
:101F8000302C302C322C300D0041542B435245471D
:101F90003F0D0041542B434744434F4E543D312C99
:101FA000224950222C220041542353474143543D9F
:101FB000312C312C2200415423534346473D312CD0
:101FC000312C3330302C3438302C3130302C310D32
:101FD00000415423534346474558543D312C302C3F
:101FE000302C302C302C300D000A506F7765722D5C
:101FF0004F6E204D6F64756C650A003B523232376C
:102000003374733B44656320323320323031363BC6
:10201000000A4D6F64756C6520736F66742D726570
:102020007365740A004563686F2064697361626C4C
:10203000650A00496E69742E206D6F64756C650ABF
:10204000000A494D45493A20000A52656164205012
:10205000494E0A000A494D53493A20000A5761691E
:1020600074696E672047534D2052656769737472B7
:102070006174696F6E2E2E2E0A0052656769737443
:10208000657265640A00526F616D696E6720616CEC
:102090006C6F7765640A00526F616D696E67206EC0
:1020A0006F742D616C6C6F7765640A00506572699E
:1020B0006F64696320636865636B20696E20726F6B
:1020C000616D696E670A00220D0041637469766173
:1020D0007465205044502E2E2E00222C22002353B3
:1020E0004741435400417474616368656420746FB0
:1020F00020475052530A005B53543B003B504F5211
:10210000525354003B455854525354003B57445487
:10211000525354003B424F44525354003B53595383
:10212000525354003B5245434F4E4E454354005D7D
:10213000000A53656E6420706572696F646963207C
:10214000646174610A000A53656E64204B656570B2
:102150002D416C6976650A000A52656164696E6793
:10216000203078000A4572722031000A436F727283
:10217000656374000A43524320457272000A457237
:10218000722032000A4572722034000A53656E6470
:10219000204C6F670A005B54000A506572696F64D7
:1021A000696320436865636B0A000A4E65656420B5
:1021B000746F2072657365740A000A434F4E4E4572
:1021C0004354454420544F205345525645522052C3
:1021D000455455524E4544204552524F520A0057DD
:1021E000726974696E67207369676E617475726570
:1021F0002E2E2E0057726974696E67206672616DAB
:10220000652E2E2E0020446F6E650A004352432037
:102210006572726F72204E414B696E670A0052659B
:10222000632E2074696D656F75740A00802230B565
:102230000C1C8FB05200081C002103F0DDFF684623
:1022400002F04EFE2C49201C04F092FB0E21201CB3
:10225000694404F053FB2949201C04F04FFB284D2E
:10226000201C291C04F04AFB2649201C04F046FBD4
:10227000291C201C04F042FB2349201C04F03EFBD7
:102280002249201C04F03AFB2149201C04F036FBB3
:10229000291C201C04F032FB1E4B201C31331B7800
:1022A0001D49002B00D11D4904F028FB291C201CCE
:1022B00004F024FB1A4B201C1B781A49002B00D178
:1022C000194904F01BFB291C201C04F017FB00F02B
:1022D000D7FF002802D0201C144901E0201C14491B
:1022E00004F00CFB201C01F01FFB00230120FF3435
:1022F00063700FB030BDC046D02D0000DB2D000054
:102300000F200000DE2D0000E12D000072210000F2
:10231000E72D0000DC040010E92D0000EF2D000087
:10232000C8040010F52D0000FB2D0000012E000058
:10233000092E0000F0B5AA4D91B000218022281C82
:1023400003F05AFF0D23A74C0093A748211C2A1C19
:10235000173303F073FA002800D139E10021072276
:102360000BA803F049FF0BA8291C062204F04CFB24
:102370009E4E0023371C237530680BA904F0D6FA53
:10238000002805D1211C73681431281C984704E0EB
:102390003B1C083618339E42EED1267D012E00D01C
:1023A00016E1281C03F0ACF9914B1E70A023E27ECD
:1023B0001B06412A00D009E11E728E4B4C331B785C
:1023C000012B02D1002003F0FBFA8B4E2023E05EAC
:1023D0003C217043FDF774FE1E23E55E0621754324
:1023E0002D18606AFDF76CFE237F2D184E2B00D050
:1023F0006D422C23E05E3C21A5677043FDF760FE33
:102400002A23E75E062177433F18206BFDF758FE2D
:102410003B180293231C28331B78452B02D0029BC8
:102420005B420293029BE367744B1E695B690593F1
:10243000002E00D195E0002D00D192E0002B00D1BC
:102440008FE0029B002B00D18BE0281C05F029F9BE
:102450006B4A6C4B04F098FD00226B4B04F050FE6D
:1024600006900791A81B05F01CF9654A654B04F01E
:102470008BFD0022644B04F043FE0022634B04F00A
:1024800083FD061C0F1C04F073F908900991301CA1
:10249000391C04F06DF9021C0B1C0898099904F012
:1024A00073FD029B059A08900991981A05F0F9F8B6
:1024B000534A544B04F068FD0022534B04F020FEB5
:1024C0000022524B04F060FD061C0F1C04F050F972
:1024D00002900391301C391C04F04AF9021C0B1CB9
:1024E0000298039904F050FD061C0F1C06980799EA
:1024F00003F016FF021C0B1C301C391C04F044FDB9
:10250000061C0F1C0698079903F00AFF021C0B1CFF
:10251000301C391C04F038FD021C0B1C089809996A
:1025200004F082FF061C0F1C04F040F9321C3B1C17
:10253000029003910020364904F08AFE04F036F937
:10254000021C0B1C0298039903F05EFE021C0B1C7C
:1025500004F06AFF00222F4B04F016FD061C0F1C2E
:1025600001E0002600272C4B244D1B78AE62EF6261
:10257000002B19D0A28E294B5343294A934213DDD5
:10258000284B321C186859683B1C04F04DFF254B42
:1025900018605960286B05F0E9FA321C3B1C04F006
:1025A00043FF04F0E1FF2863231C8833186859684F
:1025B00005F00AF80BA90A2203F0D6FF211C0F48E8
:1025C00078311822103003F013FE01E000221A7255
:1025D00000F05EFF00F0C4FD03F070F911B0F0BD33
:1025E000180B0010980B001000C0064008000010E7
:1025F000C8040010A00A0010A0860100180C0010EA
:1026000011E7FAA146DF913F006AF8400000E03F81
:102610000000F03FAE4D58411C0600103C07000082
:10262000B70B0000200C001010B500200C1C111C72
:1026300004F028FA011C201C04F09AF910BD30B5F2
:102640000D1C85B01022041C0021684603F0D4FD47
:10265000298C684603F092F86B46201C591D04F043
:102660004DF9201C002104F056F905B030BD30B5FD
:102670000D1C85B01022041C0021684603F0BCFD2F
:10268000FA21094BA88B89005843FDF719FD011C5D
:10269000684603F073F86B46201C991D04F02EF970
:1026A000201C05B030BDC0463C07000038B5041CF6
:1026B0000D1C0623C85E0A21FDF702FD3030207094
:1026C0000623E85E0A21FDF7FBFC30316170082328
:1026D000E85E0A21FDF7F4FC3030A0700823E85EC4
:1026E0000A21FDF7EDFC3031E170FA21E86889003C
:1026F000FDF7E6FCFA2130302071E8688900FDF72B
:10270000DFFC081C6421FDF7DBFC30306071E868F9
:102710006421FDF7D5FC081C0A21FDF7D1FC3030FF
:10272000A071E8680A21FDF7CBFC3031E17112237A
:10273000E85E6421FDF7C4FC303020721223E85EAD
:102740006421FDF7BDFC08B20A21FDF7B9FC303069
:1027500060721223E85E0A21FDF7B2FC3031A172EB
:102760001423E85E0A21FDF7ABFC3030E07214233D
:10277000E85E0A21FDF7A4FC30312173FA21A86933
:102780008900FDF79DFCFA2130306073A86989004B
:10279000FDF796FC081C6421FDF792FC3030A07315
:1027A000A8696421FDF78CFC081C0A21FDF788FC50
:1027B0003030E073A8690A21FDF782FC201C30311B
:1027C0001130217438BD70B54E1D041C0D1CF07FF6
:1027D0000A21FDF77DFC30302070F07F0A21FDF7E3
:1027E00077FC3031AE1D6170F07F0A21FDF770FC7F
:1027F0003030A070F07F0A21FDF76AFC3031EE1D09
:10280000E170F07F0A21FDF763FC30302071F07F2A
:102810000A21FDF75DFC3031617128780A21FDF74E
:1028200057FC3030A07128780A21FDF751FC303177
:10283000E17168780A21FDF74BFC3030207268782E
:102840000A21FDF745FC30316172A8780A21FDF7B5
:102850003FFC3030A072A8780A21FDF739FC201C1B
:1028600030310C30E17270BD08B5024904F046F811
:1028700008BDC0460F200000F0B5834B043993B06B
:102880001D68192900D9FCE0041C081C05F0ACF9EE
:10289000A4F9F9F9F998BBE789F9F9F9F9F9F90D0A
:1028A000F9F9F9C6C3C91BF9B810201C7749E6E04D
:1028B000774B01A9D869102203F056FE201C7549F8
:1028C00004F01CF8D6E005AD281C01F007FC0AA8AE
:1028D00001F0F6FB201C704904F010F8201C0021C8
:1028E00004F019F86B786D4E3033441C0370311CC2
:1028F000201C04F003F80A2201A9A87B03F034FE8F
:1029000001A9201C03F0FAFF654F201C391C03F0BD
:10291000F5FF0A2201A9E87B03F026FE01A9201C8D
:1029200003F0ECFF311C201C03F0E8FF0A2201A990
:10293000287C03F019FE01A9201C03F0DFFF391CDD
:10294000201C03F0DBFF0A2201A9687C03F00CFEC7
:1029500001A9201C03F0D2FF311C201C03F0CEFF84
:102960000A2201A9A87C03F0FFFD01A9201C03F0A5
:10297000C5FF391C201C03F0C1FF0A2201A9E87C15
:1029800003F0F2FD01A9201C03F0B8FF311C201C4C
:1029900003F0B4FF45226B469B18187801A93B3A17
:1029A00066E0201C3F4903F0A9FF7F239D43EDB261
:1029B000002D66D0201C3C4903F0A0FF344D17E0E9
:1029C000201C3A4903F09AFFAB055AD5201C364922
:1029D00003F094FF364D0BE03649201C03F08EFFC8
:1029E000201C3549AB064AD5344903F087FF344DE6
:1029F000A86901A9102203F0B7FD0023AB6139E0FB
:102A0000201C30493BE0A0231B069B7D002B34D0CB
:102A1000201C2D4933E0201C2C4930E0201C2C497F
:102A20002DE02C49201C03F069FF2B4D201C291C94
:102A300003F064FF1949201C03F060FF6B6C2A6CE3
:102A400001A9981A0A2203F08FFD01A9201C03F0A6
:102A500055FF201C214903F051FFA86C06E0201C03
:102A60001F4903F04BFF1F4B3220185E0A2201A9B9
:102A700003F07AFD201C01A901E0201C1A4903F093
:102A80003DFF13B0F0BDC046F00A0010112E00004B
:102A90007C0A0010152E00001A2E0000D0540000F1
:102AA000D82000001F2E00002A2E0000232E000038
:102AB00050060010272E000069210000422E000061
:102AC000300600102C2E00004A2E0000302E000090
:102AD000362E00003C2E0000A00A0010412E0000FF
:102AE000452E0000DC040010502E0000031E4E2B6B
:102AF00007D1302045290FD0043057290CD1033895
:102B00000AE03420532B07D10238452904D0573925
:102B1000081C411E8841333070478022F0B5041CE8
:102B2000884BA5B01B6852000F1C0021019303F0D5
:102B300063FB8549201C03F0E1FE0CAD16A802F0F2
:102B4000CFF9281C01F0D4FA201C002103F0E3FE89
:102B5000061C002F09D05E2102ABC91803F0CEFE7F
:102B6000301C002103F0D7FE061C291C301CFFF787
:102B70002AFE291CFFF79AFD291CFFF778FD291C66
:102B8000FFF75DFD297C071C2879FFF7AFFF302296
:102B90006E4B38701B7806A89B187A70BB7001F0DA
:102BA00087FA0A980B990022694B04F0A9FA04F0FD
:102BB000DBFC684BFE1C1B68071C009304F08CFFB9
:102BC000009B03AD0A22C018291C03F0CDFC00981D
:102BD00004F0C6FF011C381C04F020FF04F07CFF49
:102BE000011C281C02F0CAFD00232B7202ABD91D68
:102BF000301C03F083FE1698291C0A2203F0B4FC53
:102C0000281C03F0D7FE012803D1301C524903F0E1
:102C100075FE291C301C03F071FE5049201C03F086
:102C20006DFE201C1A21FFF727FE4D4DEB69002B8E
:102C300008D0201CFFF718FE201C1D21FFF71CFEEA
:102C40000023EB61019B1D042D0EEB060DD5201C0E
:102C5000FFF70AFE1721201CFFF70EFE201CFFF7CE
:102C600003FE201C1921FFF707FEAB0606D5201C2A
:102C7000FFF7FAFD201C1821FFF7FEFD6B461E79B9
:102C8000730606D5201CFFF7EFFD201C0C21FFF773
:102C9000F3FDF30906D0201CFFF7E6FD201C0C21F4
:102CA000FFF7EAFDEB0706D5201CFFF7DDFD201C32
:102CB0000921FFF7E1FDAB0706D5201CFFF7D4FD86
:102CC000201C0921FFF7D8FDF30606D5201CFFF7CD
:102CD000CBFD201C0421FFF7CFFDB30606D5201C39
:102CE000FFF7C2FD201C0421FFF7C6FD6B0606D5C9
:102CF000201CFFF7B9FD201C1C21FFF7BDFD6B0751
:102D000006D5201CFFF7B0FD201C0A21FFF7B4FDFB
:102D1000A0231B069B7D002B06D1201CFFF7A4FDE2
:102D2000201C0B21FFF7A8FD201C0E4903F0E6FD37
:102D300000210422034803F05FFA201C03F03AFE4E
:102D400025B0F0BDF00A0010962100001C0600100E
:102D500000408F4094060010934C0000562E000057
:102D60007C0A00102F210000802238B5041C0D1CA5
:102D70005200002103F040FA201C094903F0BEFD77
:102D8000291C201C03F0BAFD201C064903F0B6FDE7
:102D90000549201C03F0B2FD201C03F00BFE38BDDA
:102DA000582E0000DB2D00002F21000008B5044B39
:102DB000044A1B6850685B691B68984708BDC04699
:102DC000F81FFF1FC804001008B5FDF7F3FD08BD8C
:102DD000404745543B494E464F3B00373000543046
:102DE00000523232373300730047534D3A310047B7
:102DF000534D3A30004750533A31004750533A3020
:102E000000464C4153483A3100464C4153483A3011
:102E100000303139003030463A003032353A003037
:102E2000305800303043003030353A00303237000F
:102E30003032343A31003032343A30003032363ABF
:102E4000002C302C003030453A003030443A31000C
:102E50003030443A30002D005B503B002447505244
:102E60004D430024475047474100244750475341B2
:102E7000000000000122014B1A7070473409001055
:102E800070477047704770471FB5011C01A802F0DA
:102E9000C3FC05220220084B69461A70021C02F08E
:102EA00063FB6B465B78DB0704D501A802F096FC58
:102EB0000028EED005B000BD2409001007B50120A0
:102EC0000622054B01A91A70021C02F04DFB0220DC
:102ED000FFF7DAFF07BDC0462409001008B502F06D
:102EE0004BFD002804D001F079FF064B021C03E0E3
:102EF00001F074FF021C044B181C9A4201D901F026
:102F00006DFF08BDDC050000905F0100F0B5171CE7
:102F1000141C87B08B1803900293029B9C4233D001
:102F200023051B0D01931A4D14D1FFF7C7FF202372
:102F3000260B36032B70330C6B706B4604201B7909
:102F4000021C360A04A9AE70EB7002F00DFB1E20C5
:102F5000FFF79AFF039B0226DB1B1B5D0193FFF724
:102F6000ADFF230C6B70230AAB706B4605201B79F9
:102F7000021C04A9EC702B712E7002F0F5FA301CC3
:102F8000FFF782FF0134C8E7201C07B0F0BDC04640
:102F90002409001037B5051CFFF790FF01205023CE
:102FA0000A4C01A9021C237002F0DEFA0220FFF78E
:102FB0006BFF02200123021C01A92370657002F03F
:102FC000D3FA0220FFF760FF37BDC0462409001086
:102FD00010B50020FFF7DEFFEC22064C042112039F
:102FE000201DFFF793FF63680820A360FFF7D2FF5F
:102FF00010BDC046500C001073B52F4C2F4B2568E8
:10300000A6897119994204D80B0B9AB2002B12D1E0
:1030100001E000231A1C290B89B2E02916D1236094
:1030200063681B0B9BB2002B21D180235B01636083
:10303000FFF7CEFF1BE0E02B08D163681B0B9BB2B0
:10304000E02B03D100230E1C636010E02B0B9BB21E
:103050009A420AD963681B0B99B28A4205D10B1CAC
:1030600001331B036360FFF7B3FFA6897619251CA4
:103070000E35A1892268281CFFF748FF0020019621
:10308000FFF788FFEB220421120301A8FFF73EFFA0
:103090000820FFF77FFF61680948266002F082FB85
:1030A0002168084802F07EFB80220021281CD20003
:1030B000A18103F0A1F873BD500C0010FF0F0E00AA
:1030C000483B00005D3B00008022F0B5224B85B0FC
:1030D0009B89071C06335B180C1CD200934201D954
:1030E000FFF78AFF02A80021082203F085F81A4E94
:1030F000A1B2B389381C1D1C08357519AA1D009290
:103100000222F3189A7302F0BCFA0735A4B2221C0B
:103110000190391C281C03F06BF82C19019902A8A6
:1031200002F02CFB03A90422201C03F061F8032306
:10313000237100230098637102F0E2FA009B0534CA
:10314000E41A201C02F0C6FA044802F0D9FAB58944
:103150006419B48105B0F0BD500C0010733B000041
:10316000F0B5CFB006AE301C01AF00F0A9FF381C9F
:1031700000F0B4FF2C4C201C02F030FB00280AD0D9
:103180002A4B9A685B689A4201D0FFF721FF201C06
:10319000274902F041FB231C3C331D78002D3AD116
:1031A000201C443002F01AFB00281DD07B78032B32
:1031B00013D1337F002B10D01E4802F0A1FA8022D9
:1031C000291C52000EA803F017F8291C0EA8FFF7BF
:1031D000A4FC011C0EA8FFF777FFFFF77FFE011C80
:1031E000201C443002F018FB684602F029FC00283D
:1031F00017D0114802F084FA80220EA85200002154
:1032000002F0FAFF0EA80021FFF787FC011C0EA8B0
:10321000FFF75AFF05E0054B9B89002B01D0FFF714
:10322000EBFE4FB0F0BDC046D0040010500C0010B3
:10323000407E0500843B0000963B000033B5151C22
:1032400003220E4BFFB01A70020C5A70020A9A70D9
:103250000A1D92B2D8700C1C101C694602F084F949
:103260000423E21C9A4205DB6946C95C1A1FA95473
:103270000133F6E700207FB036BDC04624090010B8
:1032800013B59F2204200A4B01AC1A70211C021CAA
:1032900002F06AF963780020012B07D1A378402B54
:1032A00004D1E078143843425841C0B216BDC0463C
:1032B0002409001008B53D230348826A1A4202D04F
:1032C000024902F0C5FD08BD00800540F808001065
:1032D00037B500241948019402F012FA201CFFF7B8
:1032E00059FEED220421120301A8FFF70FFEEB2285
:1032F0000421120301A8FFF709FEEC2204211203A6
:1033000001A8FFF703FE0E4DFC22281C0D4950308A
:1033100002F06EFF231C221C281C5030195C013364
:103320005218F82BF8D1FC35EA64EE22FC21120386
:10333000FFF7ECFD0820FFF72DFE37BDA53B000091
:10334000D00400104C3A0000F0B50E1C85B037498F
:10335000051C171C03F084FB041E45D00D2103F04F
:10336000DAFA002801D000230370201C3A2103F070
:10337000D2FA2F4D002812D02E4903F083FB0C22E5
:10338000411C041C684602F033FF291C1731FF3131
:10339000684603F0CBFA00283FD0002043E0281C09
:1033A0001730FF3003F006FB0028F6D1201C21491E
:1033B00003F068FB051E03D0201C03F0CDF985B295
:1033C00000231D49DA00505AA84209D18A185368CF
:1033D000201C311C9847082D25D1184B1F7022E066
:1033E0000133102BEDD1D8E7281C154903F038FB29
:1033F0000028D2D02C1C0A34201C0E4903F042FBBA
:10340000002805D0201C03F0A7F9C0B20028C4D1C1
:10341000201C311CFEF70AFF05E0684603F0CAFADB
:1034200002302418C2E705B0F0BDC046B83B00002A
:10343000D00400100F200000CC390000680A0010F2
:10344000BD3B00001FB5ED24019024030020FFF7D1
:10345000A1FD221C042101A8FFF758FD0820FFF759
:1034600099FD03AA201C0421FFF7E8FE039B019AA3
:10347000981A43425841C0B204B010BD08B5034980
:10348000FC22503102F0B4FE08BDC046D00400104A
:10349000F0B5E1B021A80FADFFF7F0FF281C00F058
:1034A0000FFE17AC03A800F019FE201C00F020FE50
:1034B000C04AC14E517801291CD1331C4C331B78B2
:1034C000002B22D1E378412B1FD1A08BBB4B434370
:1034D000BB481B18BB48834217D82B7F002B14D046
:1034E0006B7F042B11D9A0231B06D9740323B64884
:1034F000537008E0022908D1A02300211B06D974CB
:103500000423B248537002F0FBF8B14F7B78002BD4
:1035100002D0012B0BD01BE03B78002B18D0AD481C
:1035200002F05CF9002813D001237B7010E03B7897
:103530000193002B0CD1A74802F050F9002807D0C6
:103540006B4640211B79A44A7B7053780B43537020
:10355000E378019302F010FA331C5C331870331CCB
:103560005D331A78071C82423CD0187000281BD0AB
:1035700001279A4B1F7001F057FF994802F0C0F8DD
:10358000FFF7ACFC011C9748443002F045F9019B61
:103590000020412B00D0381C02F012FA02F0F3F99F
:1035A0008D4A202153781BE08C4B18708E4802F016
:1035B000A7F801F039FFFFF791FC011C894844305E
:1035C00002F02AF908A800F073FD0C980D9904F098
:1035D0001FF81021854B804A5864804B9F705378A8
:1035E0000B4353705D9B0193002B5DD0331C4C3318
:1035F0001B78002B58D002AB5B79032B54D12B7F67
:10360000002B51D07A4AA38BD27F7A4F012A39D02E
:10361000002A02D0022A1BD046E0022B0CD901233B
:10362000734A7548D37702F06BF880216A4A4942A1
:1036300013780B43137037E0704802F0CFF800287E
:1036400032D002F0EFF96D48642102F0E5F82BE08A
:10365000022B06D90123664A6948D3770023BB6150
:1036600020E0381C02F0BAF80028E5D040215A4A80
:10367000644813780B43137002F042F800235C4A4D
:10368000D37711E0022B0FD85C48642102F0C4F814
:103690006421019B381C594302F0BEF80223544AAE
:1036A0005948D37702F02CF8B32302AA5B009B1889
:1036B0001B884C4F002B61D05379032B5ED12B7F9D
:1036C000002B5BD0FA21A08B3C4B89005843FCF7C0
:1036D000F7FC3A1C3B1C341C3B32FF321288393356
:1036E000FF331B8860340192227F80B2012A2DD0E3
:1036F000002A02D0022A13D040E098423ED9642525
:10370000424801F0FDFF0199201C694302F084F852
:10371000301C291C6C3002F07FF8022323772DE047
:10372000984203D800232377B36719E0201C02F0E6
:1037300055F8002814D01021274A354813780B4338
:1037400013700123237701F0DBFF09E0984207D8CB
:1037500000232021204A237713780B4313700DE0B8
:10376000341C6C34201C02F039F8002806D0B36FEA
:10377000201C01336421B36702F04EF83B1CFC337C
:10378000196C244C002900D17CE0237F012B68D0E8
:10379000002B02D0022B3FD074E0331C4C331B783B
:1037A000002B4FD0012302210B4A237753780B4380
:1037B000537067E0680A0010D00500103C07000055
:1037C000E7030000CE070000C73B0000DB3B000022
:1037D000F40A0010F80A0010F00A00101C0600108D
:1037E000ED3B0000D0040010F73B0000A00A0010E1
:1037F0007D0A00107C0A0010053C0000880A0010B9
:10380000183C00003A3C0000563C00006C3C0000B4
:10381000803C000050060010331C4C331D78002DF6
:1038200004D0012323770023A3612BE0201C01F0A7
:10383000D5FF002806D00121384A257753780B435D
:1038400053701FE0251C0C35281C01F0C7FF002811
:1038500018D0A369281C01336421A36101F0DCFFA7
:1038600010E0331C4C331B78002B0BD16425201C3B
:10387000694301F0D1FF201C291C0C3001F0CCFF62
:1038800002232377A0231B069D7DA61C6B1E9D4152
:10389000631CEDB2DD77F37FAB4207D0201C0A2119
:1038A000283001F0B9FF631DF577DD77A51DEA7FAC
:1038B000631D002A02D0012A15D02CE0DB7F002BEB
:1038C00029D0201C283001F089FF002823D03E2376
:1038D000FA5EFA231B019A421DDD114801F010FF28
:1038E0000123EB7712E0DE7F002E14D1201C28305C
:1038F00001F074FF00280ED03E23FA5EFA231B016C
:103900009A4208DC074801F0FBFEEE770421034AE7
:1039100053780B43537061B0F0BDC046F00A0010FD
:10392000953C0000A43C000008B5024902F0E6FF07
:1039300008BDC046B33C000030B5041C91B002A8DD
:103940000D1C01F0CDFA201C0B4903F011F81621D3
:10395000201C694402F0D2FF201C084902F0CEFF6F
:1039600001A90A22281C02F0FFFD201C01A902F077
:10397000C5FF11B030BDC046B53C00000F200000AF
:1039800010B5041C86B0122201A80C4902F030FCCC
:10399000201C0821FFF7D0FF201C094902F0AEFFD0
:1039A0006B46201C991D02F0A9FF201CFFF7BCFFED
:1039B000201C02F0FFFF06B010BDC046680A0010D0
:1039C0008221000008B5FCF7F5FF08BD01000000EA
:1039D000F54B000004000000FD4A00000500000057
:1039E0008D4A0000580200008949000007000000CD
:1039F000F549000008000000A14800000B0000008D
:103A0000514400000C000000D14300000E000000F3
:103A1000354300000F00000025480000130000009F
:103A20000D44000017000000B14300001900000021
:103A3000A14700002000000035470000F70100000A
:103A4000E142000028000000C54600007472696F62
:103A50006D6F62696C5F61706E00000000000000B5
:103A60000000000061706E757365726E616D6500B7
:103A700061706E70617373776F726400616C616303
:103A80006174692E7472696F6D6F62696C2E636FF9
:103A90006D000000000000000000000000000000B9
:103AA0000000000000000000000000000000000016
:103AB0000000000000000000000000000000000006
:103AC00000000000000000000000000000000000F6
:103AD00000000000000000000000000000000000E6
:103AE00000000000000000000000000000000000D6
:103AF00000000000000000000000000036303831F7
:103B0000000031323334353637383930414243449E
:103B10004500415452333300000000000000000112
:103B2000010100003C000000100E00000500000034
:103B3000100E000078000A00580200005A00000031
:103B4000FFFFFFFF000000000A4C6F672052656115
:103B5000642041646472657373203078000A4C6F8E
:103B600067205772697465204164647265737320BD
:103B700030780020627974657320627566666572BC
:103B800065640A000A4C4F47494E4720475053206E
:103B9000444154410A000A4C4F47494E472045567C
:103BA000454E540A000A57726974696E672064654D
:103BB0006661756C74730A002353455400234745AE
:103BC000543B494E464F00424C4F434B41474520E2
:103BD0004143544956415445440A00424C4F434BDB
:103BE0004147452052454D4F5645440A000A494732
:103BF0004E495445440A000A4E4F545F49474E49C6
:103C00005445440A004F7574206F662049444C4562
:103C10002073746174650A0054696D656F75742052
:103C200062656B6C65726B656E20686172656B6551
:103C300074206564696C64690A0049646C65205489
:103C4000696D656F757420616C61726D69206F6C50
:103C5000757374750A0057616974696E67204964E9
:103C60006C652054696D656F75740A0048697A2027
:103C70006C696D697469206173696C64690D0A000F
:103C800048697A206C696D6974692074696D656F23
:103C900075740D0A00504F5745525F4150504C49C2
:103CA00045440A00504F5745525F52454D4F5645C7
:103CB000440A002100405345543B0000002370B5E6
:103CC000C9B205680B4C2E78A41980342478A40658
:103CD0000DD500290BD00A246343341C303C1B193A
:103CE000002E01D0013505600139C9B2E9E7012094
:103CF000136070BD7C630000F0B50F1C012100242F
:103D000085B00192494203AA051C0394FFF7D6FF30
:103D1000061EA64231D02B681A782E2A2CD10133E8
:103D20002B6005230A219C46201C2B681C780093DD
:103D3000134B1B1980331B789B0611D50A22231CB9
:103D40005043303BC018002C02D0009B01332B6045
:103D500001235B429C4463465143002BE5D106E0BE
:103D6000FA239B00994202D10A21FCF7A9F9039B8F
:103D70003B60019B186000E0261C301C05B0F0BDC4
:103D80007C630000022330B585B00B70019001A860
:103D90000C1C01F069FC01A801F066FC01A801F00F
:103DA00063FC01A801F060FC01A801F05DFC01A822
:103DB00001F05AFC012101A8494203AAFFF77EFF46
:103DC000051E03D0231C039A48331A7001A801F082
:103DD0004BFC012101A8494203AAFFF76FFF2840CD
:103DE000C0B2002802D0039B4934237005B030BD17
:103DF0007FB5012301900B7001A80C1C01F034FC6D
:103E000001A8022102AAFFF759FF002801D0029B56
:103E1000237101A8022102AAFFF750FF002801D058
:103E2000029B637101A8022102AAFFF747FF002845
:103E300001D0029BA37101A801F016FC019B494D22
:103E40001A78AB1880331B78DB0600D581E001A817
:103E500001F00AFC01A802A903AAFFF74DFF002800
:103E60000CD0029E6421301CFCF72AF96421608189
:103E7000301CFCF725F9039BA181236101A801F007
:103E8000F3FB019B1A78AB1880331B78DB0662D4F6
:103E900001A801F0E9FB01A802A903AAFFF72CFF82
:103EA00000280CD0029E6421301CFCF709F9642123
:103EB000E082301CFCF704F9039B2183E36101A835
:103EC00001F0D2FB019B1B78ED1880352A78D206D1
:103ED00043D401A801F0C8FB01A802A903AAFFF777
:103EE0000BFF002803D0029B2384039B638401A85B
:103EF00001F0BAFB01A802A903AAFFF7FDFE002802
:103F000003D0029BA384039BE38401A801F0ACFBD4
:103F100001A8022102AAFFF7D1FE002803D0231C2A
:103F2000029A28331A7001A8022102AAFFF7C6FEDE
:103F3000002803D0231C029A29331A7001A80221F9
:103F400002AAFFF7BBFE002809D0029B2A34237087
:103F500005E0E2717BE722729AE72375B9E704B0C6
:103F600070BDC0467C6300000323F0B585B00190AE
:103F70000B7001A80C1C01F077FB019B1A78314BE8
:103F80009B1880331D7810231D4001D0012500E0CF
:103F90002A1C231C4C331A7001A801F065FB012177
:103FA00002AA494201A8FFF789FE231C029A4D3359
:103FB00005401A7001A8261C271C01F055FB4E363F
:103FC0005A37012102AA494201A8FFF777FE029B56
:103FD0000540337001A8013601F046FBBE42F0D126
:103FE00001A802A903AAFFF787FE0540EDB2002D44
:103FF00005D0231C029A5A331A70039A5A7001A8EA
:1040000001F032FB02A903AA01A8FFF775FE231CE9
:10401000029A5C331A70039A061C5A7001A801F0C8
:1040200023FB03AA01A802A9FFF766FE231C029A3C
:104030005E331A703040039B5F342840237005B014
:10404000F0BDC0467C63000008B503480349044A3C
:1040500002F09EF808BDC04600800640DC06001055
:10406000C8060010BFF34F8F024A034BDA60BFF35C
:104070004F8FFEE70400FA0500ED00E0094B0A4A05
:10408000198C00204A4309498A420ADD1A1C483229
:104090001278824205D04933187804238342804144
:1040A00040427047AC0B00103C070000F72A0000AC
:1040B00008B50249182202F09BF808BD100C001048
:1040C000021C10B5044B2C3313CB13C213CB13C2F9
:1040D00003CB03C210BDC046AC0B001008B50349AA
:1040E00014224C3102F084F808BDC046AC0B00101D
:1040F000021C10B5054B043313CB13C213CB13C2F0
:1041000013CB13C21B68136010BDC046AC0B00106C
:1041100008B503480349044A02F03AF808BDC0460E
:1041200000C00640980B001060100010F0B500258C
:10413000CBB0494B03AA13CB13C21B68474C136087
:104140002368474A474E13403570201C236001F016
:104150006BFF2268444B454F1340454A391C1343BB
:1041600023608023143101229B00424801F092FD1C
:104170004149381C14310122642301F08BFD0BA846
:10418000FFF77CF9489901963C4F261C4B1C1DD02B
:10419000201C01F0AFFF2368314A013513402B4347
:1041A00023606368364A37491340C1226360920036
:1041B000E560BB5834480B408021C9010B43BB501C
:1041C00020233B6001F09CFA2C1C42E003AB5B59BE
:1041D0002248191C009301F08DFF3368204A2849BA
:1041E0001340012213433360736896200B407360C1
:1041F000F260C1229200BB58224940000B4080214E
:10420000C9010B43BB50202320493B6000F0BCFD9B
:10421000019B04351C78002C14D01D4B009AF433FC
:104220001A6000F02DFA1B4801F06AFA07A90A2269
:10423000009802F099F907A801F062FA164801F017
:104240005FFA06E0102DC1D1FA211448490001F0AF
:10425000E3FA201C4BB0F0BDA042000000C00640B5
:104260007CDAFC00C804001001DAFC0060100010C9
:1042700004004000980B00106012001000E100E004
:1042800006030100FF00FFFFB042000035230000DD
:1042900020050010CB4200007D3C00008406001089
:1042A000C012000080250000004B000000C2010089
:1042B00056616C6964206770732062617564207256
:1042C00061746520666F756E640A00446574656389
:1042D000746564206261756420726174653A0000DF
:1042E00030B5051CA3B00E4801F00AFA0D4C281C8D
:1042F00002A9221CFEF798F9221C281C6946FEF729
:1043000093F902A9084802F033FB6946074802F016
:104310002FFB01220220064B1A7023B030BDC0468D
:10432000644C00000F20000035090010B509001092
:104330009006001070B5041C0D1C1A4EB2B004A9F2
:10434000321CFEF771F9201C0AA9321CFEF76CF929
:10435000201C6946144AFEF767F92B1C0024FF3322
:1043600012485C7001F0CCF904A80AA9221C00F0E4
:104370009BFEA04213D0281C0E21FFF7DDFA04A9F2
:10438000281C02F0BBFA0AA9281C02F0B7FA6946F9
:10439000281C02F0B3FA281CFFF7C6FA0134201CCF
:1043A00032B070BD0F200000B33C0000724C000022
:1043B00010B50C1C054801F0A3F9201C0121FEF7E3
:1043C000ACFB0023FF340120637010BD7E4C000065
:1043D00007B50A4A01A9FEF727F901A8084902F022
:1043E000A5FA002807D1BFF34F8F064A064BDA60C3
:1043F000BFF34F8FFEE700200EBDC0460F20000028
:10440000692100000400FA0500ED00E030B5051C4C
:1044100091B002A80C1C00F063FD281C01A90A4AF7
:10442000FEF702F901A8094902F080FA0025A84226
:1044300007D11621201C6944FF34FEF795FC6570F6
:104440000135281C11B030BD0F200000692100008B
:1044500070B5051CA4B01D4A0C1C04A9FEF7E4F8B5
:10446000281C69461A4AFEF7DFF804A802F0A2FAEF
:1044700004A9021F14A802F0C7FA14A802F06CF9EC
:10448000061CFEF7DFFF134D002800D06E60201CD5
:104490000B21FFF751FA0A2204A9686802F040F8DC
:1044A00004A80D4902F02AFA04A9201C02F026FAF9
:1044B0006946201C02F022FA201CFFF735FA00237F
:1044C0000120FF34637024B070BDC0460F2000008F
:1044D000B33C000090060010904C0000EE2038B570
:1044E0005B4C0003221CFC21FEF7A8FE00231A1CD3
:1044F000E15C01335218F82BFAD1231CF8331B6806
:104500009A4205D0534801F0FBF8FEF7E1FE16E0B1
:10451000514A2378D3183822803319780023114266
:1045200008D01A1C3032A25C2E2A00D188E0013358
:10453000802BF6D1201C4949FC2201F059FE201C99
:1045400001F010F9464801F00DF9464801F00AF96A
:10455000454801F007F9454801F004F9444801F0E5
:1045600001F9444801F0FEF8231CD333187801F018
:10457000B1F8414D281C01F0C3F8231CD43318783E
:1045800001F0A8F8281C01F0BBF8231CD5331878DB
:1045900001F0A0F8281C01F0B3F8231CD6331878DA
:1045A00001F098F8281C01F0ABF8231CE8331888B8
:1045B00001F090F8281C01F0A3F8231CEA331888B6
:1045C00001F088F8281C01F09BF8231CEC331868D4
:1045D00001F080F8281C01F093F8231CE0331868E0
:1045E00001F078F8281C01F08BF8231CE4331868DC
:1045F00001F070F8281C01F083F8231CD8331868E8
:1046000001F068F8281C01F07BF8231CDC331868E3
:1046100001F060F8281C01F073F8231CF0331868CF
:1046200001F058F8281C01F06BF8231CF4331868CB
:10463000F83401F04FF81148216801F0B3F838BDA3
:104640000B4802F089F8002800D078E772E7C046EE
:1046500020050010954C00007C6300004C3A0000DF
:104660004405001038050010D60500105005001054
:10467000D0050010E60500107D3C0000A84C0000AD
:1046800000231A1C10B50D4CE15C01335218F82BB5
:10469000F9D1231C0020F8331A60FEF77BFCEE22D0
:1046A000FC211203201CFEF731FC0820FEF772FCEF
:1046B000FFF714FF024801F023F810BD2005001099
:1046C000B34C000030B5051C89B00C1C164A04A977
:1046D000FDF7AAFF6946154A281CFDF7A5FF04A8A7
:1046E00002F03AF8124DF4352860FFF7C9FF201C9C
:1046F0002821FFF721F90A2204A9286801F034FFD4
:1047000004A9201C02F0FAF86946201C02F0F6F811
:10471000201CFFF709F9FFF709FD00230120FF34F2
:10472000637009B030BDC0460F200000B33C0000EC
:1047300020050010F0B589B0164A0C1C6946071C0C
:10474000FDF772FF684602F035F900250C281DD8E8
:10475000114E6946301C02F00BF9104A381C04A9AE
:10476000FDF762FFFFF78CFF201C2021FFF7E4F824
:10477000201C311C02F0C2F8201C04A902F0BEF873
:10478000201CFF34FFF7D0F865700135281C09B0F4
:10479000F0BDC0460F200000E6050010B33C00004D
:1047A000F0B5051C0C1C1A4E1A4F85B0391C321C72
:1047B000FDF73AFF281C321C1749FDF735FF281C6E
:1047C000321C1649FDF730FF154A281C6946FDF7D3
:1047D0002BFFFFF755FF201C1921FFF7ADF8391CFF
:1047E000201C02F08BF8201C0B4902F087F8201CDB
:1047F0000A4902F083F86946201C02F07FF8201C69
:10480000FFF792F80120FF34607005B0F0BDC0469C
:104810000F2000002005001038050010440500108E
:10482000B33C0000F0B5194E85B00C1C184A311C81
:10483000071C0025FDF7F8FE2B1C164AB633D35C87
:10484000154AD31880331878202318401CD001351E
:104850000F2DF1D1114A381C6946FDF7E5FEFFF72F
:104860000FFF201C291CFFF767F8201C311C02F0E9
:1048700045F8201C694602F041F8201CFFF754F867
:1048800000230120FF34637005B0F0BDD605001091
:104890000F200000200500107C630000B33C0000E6
:1048A000F0B587B00C1C2F4A01A9071CFDF7BCFE10
:1048B0002D4D01A8291C02F039F800281BD12B4EE0
:1048C00002A9331CD6331870294A381CFDF7ACFEF8
:1048D000D336284800F014FF3378002B01D1FFF7BE
:1048E000CFFE201C0821FFF727F8201C291C02F00E
:1048F00005F8022222E0204D01A8291C02F016F83A
:1049000000282CD11D4800F0FBFE184E0122331C5C
:10491000D6331A70381C02A9154AD336FDF784FE27
:104920003378002B01D1FFF7ABFE201C0821FFF7E5
:1049300003F8201C291C01F0E1FF0122104B02A901
:104940005A701048102201F053FC201C02A901F0FB
:10495000D5FF201CFEF7E8FF0023FF346370012021
:1049600007B0F0BD0F200000934C000020050010A0
:10497000B33C0000C64C000069210000DF4C000081
:10498000680A00106A0A001070B588B00C1C164A3C
:1049900004A9061CFDF748FE04A801F0DDFE134D36
:1049A0006946F035124A2860301CFDF73DFEFFF7DE
:1049B00067FE9621201C8900FEF7BEFF0A2204A98B
:1049C000286801F0D1FD04A9201C01F097FF694679
:1049D000201C01F093FF201CFEF7A6FF00230120FE
:1049E000FF34637008B070BD0F2000002005001078
:1049F000B33C0000F0B5214F87B00C1C3A1C69464F
:104A0000061CFDF711FE684601F0A6FE1C4B694628
:104A100018803A1C301C1B4DFDF706FE684601F05D
:104A20009BFEEA3502A9184A2880301CFDF7FCFDE0
:104A3000FFF726FE201C0721FEF77EFF104B69467C
:104A400018880A2201F090FD6946201C01F056FFEB
:104A50000A226946288801F087FD6946201C01F07A
:104A60004DFF02A9201C01F049FF201CFEF75CFF4E
:104A700000230120FF34637007B0F0BD0F20000059
:104A80000806001020050010B33C000070B586B089
:104A90006B46DE1C0C1C0020311C154AFDF7C4FDC2
:104AA00033780025303B012B1FD8124A281C02A95D
:104AB000FDF7BAFD3378104E303B5A1E9341D43681
:104AC0003370FFF7DDFD201C0521FEF735FF33783D
:104AD00001A93033201C4D700B7001F00FFF201C1A
:104AE000FF34FEF721FF65700135281C06B070BD4C
:104AF0000F200000B33C000020050010F0B53A4D37
:104B000089B02A1C00200C1C6946FDF78DFD6B4600
:104B10002A1C694600201E78FDF786FD684601F0D4
:104B20001BFE2A1C6946071C0020FDF77DFD684618
:104B300001F012FE04A9051C2C4A0020FDF774FDAB
:104B4000302E05D12A4B1A1CE0321760E43307E0FF
:104B50000020312E46D1264B1A1CD8321760DC3388
:104B60001D60FFF78DFD00F05FFC201C0421FEF7A7
:104B7000E3FE6B466A461E700023201C6946537094
:104B800001F0BCFE1A4D302E0CD12B1CE0331868FE
:104B900069460A2201F0E8FC201C694601F0AEFEDD
:104BA000E4350BE02B1CD833186869460A2201F063
:104BB000DBFC201C694601F0A1FEDC350A226946B7
:104BC000286801F0D1FC201C694601F097FE201CEA
:104BD00004A901F093FE201CFEF7A6FE002301208D
:104BE000FF34637009B0F0BD0F200000B33C00003B
:104BF00020050010F0B50C1C164E174F85B0311C67
:104C00003A1C0020FDF710FD144D3A1C291C002011
:104C1000FDF70AFD124A69460020FDF705FDFFF782
:104C20002FFD201C0121FEF787FE311C201C01F006
:104C300065FE291C201C01F061FE6946201C01F064
:104C40005DFE201CFEF770FE0120FF34607005B091
:104C5000F0BDC046500500100F200000D005001028
:104C6000B33C0000537461727420557064617465C4
:104C70000A00534D5320436F6E6669670A004C6FFC
:104C8000636174696F6E20726571756573740A0073
:104C900030303030000A496E76616C6964205365AB
:104CA0007474696E67730A000A436865636B737591
:104CB0006D3A000A53455454494E475320555044C9
:104CC000415445440A00424C4F434B414745205212
:104CD000454D4F564520524551554553540A0042C3
:104CE0004C4F434B41474520524551554553540A7B
:104CF0000000000070B5041CA0B080220E1C6846A5
:104D0000002101F079FA211C6846802201F070FA36
:104D10006846202101F0FFFD002801D1002011E0AC
:104D2000094C0025211C01F0ADFE0028F6D001350C
:104D3000B54202D101F010FD04E0211C002001F079
:104D4000A1FEF2E720B070BDCF54000008B50C49B9
:104D500001F086FE002812D00221FFF7CBFF094B9D
:104D600000211A1C2F332E3211701970012801D125
:104D7000107004E0052802D101211170197008BDDE
:104D800040540000DC0400101FB5031C0C1C01A8DB
:104D9000191C00F041FD01A800F020FD002803D1FE
:104DA000002CF8D0A047F6E71FBD38B50948A0256C
:104DB00000F0A6FC0123084C2D066B75211C192060
:104DC000FFF7E2FF0023AF206B758000211CFFF787
:104DD000DBFF38BDD25400003523000000B5C1B060
:104DE00001A8FEF74BFB00F0C7FD002805D01D4BC6
:104DF00064202F331B78002B0ED000F0BDFD00285F
:104E00000ED1184B2F331B78002B09D1FFF736F941
:104E1000031C6420002B01D0399B1DE03A9B1BE052
:104E200000F0AAFD002805D00E4B64202F331B781C
:104E3000002B0ED100F0A0FD00280FD1094B2F331D
:104E40001B78002B0AD0FFF719F9031C6420002BF4
:104E500001D0379B00E0389B584301E0FA20400026
:104E600041B000BDDC04001010B50C4C0C49201CF6
:104E700000F0D2FC201CFA210C30890000F0CCFCA0
:104E8000FFF7ACFF011C201C183000F0C5FC201CF3
:104E900096212430490000F0BFFC10BD9806001098
:104EA0003075000038B5051C081C00F029FC281CD2
:104EB00001F080FD084C2A1C211C031C30310748DE
:104EC00001F044F9201C211C8023583101229B0051
:104ED000443000F0DFFE38BD980600100080064028
:104EE00008B50249382201F083F908BDDC0400103E
:104EF000F0B50C1C151C89B00021221C1F1C061CBF
:104F000001F07AF9291C02A800F086FC002502A80D
:104F100000F064FC002822D16B461349DA1D1348C7
:104F20004431012301F02DF900280BDD05A80A21E9
:104F300000F072FC6A46D2796B1C7255A34210D005
:104F40001D1C08E005A800F049FC002803D0002D36
:104F500001DDA8B206E0002FD9D0B847D7E700207E
:104F600000E0201C09B0F0BD98060010008006404B
:104F700070B5161C96220C1C051CDEB000215200D8
:104F800013A801F039F90021402203A801F034F9F7
:104F9000221C0021281C01F02FF90A22201C01A943
:104FA00001F0E2FA1B4C03A8211C083101F0A6FC19
:104FB00001A903A801F0A2FC174903A801F09EFC77
:104FC00003A81649FFF76EFF962113A84900C822CF
:104FD000331CFFF78DFF211C13A8183101F040FD91
:104FE000002801D1002013E00D4901F039FD041E15
:104FF000F8D013A80221FFF77DFE002382B281B210
:105000008B4204DAE1188978E9540133F7E7101C80
:105010005EB070BD40540000C82000007F3C00001E
:105020007D3C0000F0B50D1CD1B0171C00212A1CDE
:10503000061C002401F0E0F8FF2D20D8301C291CAC
:105040003A1CFFF795FF27E0144968461F3101F02D
:1050500007FD00281FD00421FFF74CFE80B2002876
:1050600019D080213A1C490010A8FFF781FF051CC8
:1050700010A930192A1C01F0BBF82C19A4B2084859
:105080000849FFF70FFF68464021C8223B1CFFF785
:105090002FFF0028D8D1201C51B0F0BD4054000093
:1050A000E65400007F3C0000F0B5B7B01A2300249E
:1050B000151C6A46071C137054700E1CC822211C54
:1050C00004A801F099F82D4904A8243101F016FC38
:1050D000391C04A801F012FC294904A801F00EFCB7
:1050E00004A82849FFF7DEFE211CC82204A801F00D
:1050F00083F8C8212B1C0A1C04A8FFF7F9FE04A89A
:105100003E2101F008FC031EA34233D0C822211C1B
:1051100004A801F071F8311C04A801F0EFFB694606
:1051200004A801F0EBFB04A81749FFF7BBFEFA2126
:1051300001A8890000F070FB01A800F04FFB011EE0
:1051400014D1C82204A801F057F8C82104A80A1CE9
:105150002B1CFFF7CDFE04A80C4901F081FC0028B0
:10516000EAD00B4800F0CCFA012303E0094800F034
:10517000C7FA0023181C37B0F0BDC04640540000E9
:10518000C8200000EF5400007F3C00009F5A000040
:10519000FF54000009550000F0B5604D604C281C1C
:1051A000A5442D305F49FFF77DFEC8215E4C0A1CE7
:1051B000231C0AA8FFF79CFE0AA800F0A1FA0AA87F
:1051C000FFF7C4FD291C0AA85F3101F049FC0194D6
:1051D000564C002805D00221FFF78CFD0A235843C6
:1051E0006086291C0AA8643101F03AFC002803D02B
:1051F0000121FFF77FFD20600021202202A800F09E
:10520000FBFF0AA940227BA800F0F2FF48497BA8D7
:1052100001F026FC461C301C222101F07CFB002EF4
:1052200007D0002805D00023311C037002A801F02C
:105230009FFB02A800F064FA3CA8FEF71FF90222C7
:105240000021FF327BA800F0D7FF291C0AA86B3190
:1052500001F006FC061E01D1002623E0354901F0CD
:10526000FFFB071EF8D0301C0D2101F054FB002875
:10527000F2D000227BA90270381CFEF765F8061EEA
:10528000012E0FD17BA800F03BFA019A02A87BA95E
:10529000FFF70AFF284B02AA9B185B78002B01D06E
:1052A000FEF7E0FE291C0AA81F3101F0D9FB071EFA
:1052B00012D00221FFF71EFD0321A080381CFFF74A
:1052C00019FD0421E080381CFFF714FD0521208121
:1052D000381CFFF70FFD60816289A38917499A4244
:1052E00001D2002302E0886DD31AC3188B65291CF4
:1052F0000AA87231A28101F0B3FB002809D0022173
:10530000FFF7F8FC3034002801D1207001E00123C0
:105310002370301CBD239B009D44F0BD4054000011
:105320000CFDFFFF7F3C000035230000DC04001073
:105330001A550000B83B0000E30200009808001076
:1053400010B5052488B00F480F497730FFF7AAFD44
:10535000FA222021684652000023FFF7C9FD684663
:105360000A4901F07DFB002804D0094800F0C8F983
:10537000012004E0013CE4B2002CE4D1201C08B080
:1053800010BDC046405400001D5500009F5A00004B
:105390000622000070B50E1C141CA2B000212022B1
:1053A000051C02A800F028FF0A22301C694601F003
:1053B000DBF8194902A801F0A1FA694602A801F038
:1053C0009DFA164902A801F099FA154E02A8311C5F
:1053D000FFF768FD231C8021C82202A8FFF788FD83
:1053E00002A83E2101F097FA031E13D0311C281C9D
:1053F000FFF758FD281C00F083F9231C8021C822E8
:1054000002A8FFF775FD02A8064901F029FB431E1B
:105410009841C0B222B070BDC0540000C820000046
:105420007F3C00009F5A000008B5FFF7D7FC011C25
:105430000248183000F0F0F908BDC0469806001088
:105440002B435245473A200041542353524543567B
:105450003D312C3235360D0053524543563A002328
:1054600053493A0041542B434D47533D0041542B7F
:10547000434D47523D313B2B4353513B2B43524508
:10548000473F3B234342433B2B434D47443D312C55
:10549000343B2353493D313B2353533D310D0023CE
:1054A000434243002B4353513A20002B434D475274
:1054B0003A002353533A0041542353483D310D00E1
:1054C0004154235353454E444558543D312C000D0F
:1054D0002C000A4D6F64756C6520686172642072DF
:1054E000657365740A0041542353493D310D0053DF
:1054F000656E64696E6720534D532E2E2E0A00533D
:105500004D532053656E740A0043616E6E6F7420B4
:1055100053656E6420534D530A00222B000A436CDE
:105520006F73696E6720736F636B65742E2E2E0028
:105530000A4A0B4BD16F10B50B4080210B43D36748
:105540000123A0218E2483400906A4010B510023CE
:105550000B54D16F034B0B40D36710BD0480044044
:10556000FFFFEF257FFFEF2538B50B1C144CE360E0
:10557000E023251CDB0423623035231C2561012533
:105580002D331D70231CA2840022E0842C330D488F
:105590001A700368BD32FF321A40211D216002607B
:1055A000BE220368FF3213402B43036000F0CAFCA5
:1055B000231C40331A78002AFAD000221A7038BD12
:1055C000F408001000800540F0B50524D1B0FFF7C5
:1055D000E3FDFA201E4E4000311CFFF7D5FB802270
:1055E0000021520010A800F007FE1A4D10A8291C37
:1055F00001F084F9184910A80F1CC13101F07EF99F
:105600004137164910A801F079F9391C10A801F0AA
:1056100075F9134910A801F071F910A81149FFF7A5
:1056200041FC40216846C822331CFFF761FC291C5D
:1056300068460B3101F014FA002805D1013CE4B2B0
:10564000002CC4D1201C00E0012051B0F0BDC046A8
:1056500035230000945A0000F4080010DB200000FD
:10566000A25A0000AB5A000003681A782C2A05D011
:10567000002A00D1FEE701330360F5E70133036040
:105680007047031C002030B51A78120250400822DF
:1056900005B24400A0B2002D02DA06484440A0B290
:1056A000013AD2B2002AF3D1013989B2013300297B
:1056B000EAD130BD21100000044A08B5111C04488D
:1056C0004C31603200F064FD08BDC0467409001022
:1056D000004006401FB50A22694600F045FF6846B3
:1056E00001F068F90449031C60316A46034800F080
:1056F0002DFD05B000BDC0467409001000400640F5
:1057000010B5041C01F056F90349031C6031221C3A
:10571000024800F01BFD10BD740900100040064057
:105720000D4A10B513885188141C99420DD8101DCC
:105730000A490022FFF776FC6080002802D0084862
:10574000FFF7DEFF0020208005E0591CD3181B79ED
:1057500011800370012010BD140F00101A04000006
:10576000BA5A000010B5041C0348FFF7C9FF201CFB
:10577000FFF7C6FF10BDC0467E3C000000231A1C88
:1057800070B50F24064E0C40365D851AEE7109097E
:10579000002C00D0131C0132082AF2D1581C70BD15
:1057A000C95A00007FB5002301AC0E1C051C2372F2
:1057B00001F000F90749031C2A1C6031064800F07B
:1057C000C5FC311C201CFFF7D9FF201A0830FFF759
:1057D00097FF7FBD74090010004006400D4B82B05A
:1057E0001B680193037A0199002B07D002680023FC
:1057F00091420BD242688A429B4106E042680123F3
:10580000914203D8036899429B415B42181C02B045
:105810007047C046040B0010074B82B01B68019311
:10582000019BC918036041608B4201D8002300E04E
:105830000123037202B07047040B0010F0B587B06B
:105840001D1C0CAB1B780092019302ABDC1C0023E7
:10585000221C23700133061C0F1C00F092FC002850
:1058600001D1002028E02378AB42FAD1009A03A8A6
:1058700013700221FFF7D0FF012403A8FFF7AEFF4A
:105880000028EED102ABDD1C301C391C2A1C012380
:1058900000F077FC0028F0D003A80221FFF7BCFF3E
:1058A000802C04D82A780099631C0A559CB22B7866
:1058B000019A9342E1D1201C07B0F0BD30B5254CD0
:1058C000C9B0251C743500218022281C00F094FCEE
:1058D00002220021FF3207A800F08EFC2123211CA8
:1058E00000934C311C482A1C0233FFF7A7FF002805
:1058F00017D0281C07A90222FDF726FD012802D196
:1059000007A8FFF7FDFE1C23FF336B445B78002BD9
:1059100007D0BFF34F8F114A114BDA60BFF34F8F9F
:10592000FEE7104C02AD7434281C211C122200F03A
:105930005FFC6B78032B0AD12B78022B07D107A8C9
:10594000FEF71EF807A8FFF7DBFE0023637049B0DF
:1059500030BDC04674090010004006400400FA053E
:1059600000ED00E0F4090010024A136801331360EF
:105970007047C046040B0010A0231B06987B4342CF
:105980005841C0B2704730B5C1B001A8FDF776FDEF
:105990000A4C0222231C6425201C28331A70002381
:1059A0003D990830694323626362FFF735FF201C8D
:1059B000291C1430FFF730FF41B030BD740A0010CD
:1059C000F0B591B0061C6846FEF772FB144D4022FC
:1059D0002F1C2C3706AC0021381C00F00DFC201CBD
:1059E000FEF786FB211C381CFCF7EDFE211CFCF7A2
:1059F0005DFE211CFCF73BFE211CFCF720FE217CF8
:105A0000071C2079FDF772F8002338700498059977
:105A10006B6701F0FDFDE86678352E7011B0F0BDC2
:105A2000740A0010054B1A6A01321A625A6F013269
:105A30005A675A6A01325A627047C046740A0010A7
:105A4000024BD86F431E9841C0B27047740A0010D1
:105A5000012310B5094C0A48E169226A194202D0B3
:105A6000E361002302E01A4201D023620370043094
:105A70000A21FFF7D1FE0123636210BD004000A0A0
:105A8000F40A001008B5FAF795FF08BD08B5FAF753
:105A900091FF08BD41542353443D312C302C004F1D
:105AA0004B00222C302C302C310D000A436F6E6ECF
:105AB000656374696E672E2E2E00506167652072D3
:105AC000656365697665640A003031323334353692
:105AD000373839414243444546000000044A054BEB
