:100000000020001035020000150800001D08000047
:1000100000000000000000000000000000000000E0
:1000200000000000000000000000000025080000A3
:1000300000000000000000002D080000350800004E
:100040003D08000045080000000000004D080000C9
:10005000550800005D080000000000006D08000069
:1000600065080000850800008D0800009508000064
:100070009D080000A5080000AD080000B5080000BC
:10008000BD080000C5080000CD080000D50800002C
:10009000DD080000750800007D0800000000000079
:1000A000E5080000ED080000F5080000FD0800006C
:1000B000050900000D090000150900001D090000D8
:1000C00010B5024B1B68984710BDC04600000010D9
:1000D00010B5024B1B68984710BD000004000010CB
:1000E000610000000200320000000201FB0E0D0062
:1000F00001010101000000010000012E2E2F73728A
:1001000063000061656162695F726F6D6469765F4B
:1001100070617463682E730001000000000502C066
:10012000000000033F01212121212B0202000101D7
:10013000000502D000000003D50001212121212B60
:1001400002020001016C0000000200B50100000481
:1001500001E0000000F00100002E2E2F7372632FCB
:1001600061656162695F726F6D6469765F70617409
:1001700063682E7300433A5C55736572735C6D6BF4
:10018000757275735C4465736B746F705C626163E8
:100190006B75705C523232373574735C54305C442A
:1001A0006562756700474E5520415320322E323626
:1001B0002E300001800111001006550603081B08AF
:1001C00025081305000000FF24000000020045017F
:1001D0000000040000000000C0000000100000004B
:1001E000D00000001000000000000000000000002F
:1001F000FFFFFFFF00000000C0000000D000000073
:10020000D0000000E000000000000000000000003E
:100210004120000000616561626900011600000074
:1002200005436F727465782D4D3000060C074D093B
:1002300001FFFFFF8F4BF0B51B688FB01A698E4B23
:100240001168526819605A608021A0238E221B0613
:1002500049009201995001221A7200F051FA87491F
:10026000874B00245B1A9B101A00002A04DD5542BC
:10027000C8184455013AF8E78021824A8248D36F72
:10028000C90203400B43802101250427D367D36FA4
:100290007E4E03400B43D3677D4B7F311D607D4B0A
:1002A0001C688C433C431C601C69A44667467A4C1E
:1002B0003C40D0277F033C43C0271C61DC687F059E
:1002C0002402240A3C43DC601C69A4466746734C44
:1002D0003C40C8277F013C430F271C611C698C43AD
:1002E0003C431C61D46F6E4B0B3F2340D367D36FED
:1002F0006C4C184080231B011843D06772686A4B0E
:100300006A48134073607268694B13402B437360F3
:1003100082232268FF3313402360BE232268FF3309
:1003200013401F43F0231B0327602362B36F194060
:10033000FFF7CEFE5F49FFF7CBFE002800D1280073
:10034000013860625748B36F636A00F0C9F95A4DCB
:100350005A4B5B4CAB6008232C60AB8200F0AEF9CB
:10036000502323704F3B2B6100F0BCF800F00EF9D6
:100370000028FBD101232370DB1860702B6100F093
:10038000B1F800F003F90028FBD1020006ABC2541B
:1003900001302028FAD1F0206A460421000300F041
:1003A00009F901AA0421474800F004F9019B01332F
:1003B00007D00098431C04D000F01EF9019B834233
:1003C00002D0414B984753E002243227F823802182
:1003D0009B00E518AD023D4AC900280000F0EAF88C
:1003E00072B63B4E06A901A8019702940394B04748
:1003F00034230193374B06A9049301A80294039474
:10040000B04706A901A8019702940394B04733238B
:100410000193314B06A9ED182C4B029503938023D1
:10042000DB0004932B4B01A80593B04762B601345F
:1004300000F066F9202CC9D100F040F90F22204BC2
:100440005A7000221C709A70DA701B4B04321A61C9
:1004500000F048F800F09AF80028FBD1BFF34F8F66
:100460001E4A1F4BDA60BFF34F8F00F049F9FEE7D9
:10047000FEE7C046F81FFF1F000000100800001034
:10048000A40C001004800440FFFFEF25008004400E
:100490009480044000C00040FFFF00FFFF00FFFF0A
:1004A0007FFFEF2500800540FEDF0100001BB70045
:1004B000FFDF0100A086010008040010A004001066
:1004C0002004001004000F0025090000080000109F
:1004D000F11FFF1FE02E00000080F0FF0400FA056E
:1004E00000ED00E03C23F7B5F0208024254900050D
:1004F0008B60254BA4031A7D013A12060240224369
:100500000A620022DA605A6001329446019058680B
:100510001C69A0422AD202228E681A4F164218D0B5
:10052000A04216D2621E90420ED11A68155CC022FB
:100530009203154300951A7D019D013A12062A4047
:10054000009D2A43BA6102E01A68125CFA61013028
:10055000586062461642DAD0DA689442D7D94869C0
:100560009C68A054DA680132DA60D0E7DA68944215
:10057000D1D80C238A681A40534253415B42184039
:10058000FEBDC04600800540080400100522064B51
:1005900010B51A70054B033A1A61FFF7A3FF044B1D
:1005A00058780123184010BD2004001008040010E2
:1005B000A004001070B5150003220C4B0C4C1A70EF
:1005C000020C5A700431020A9A70D8702161FFF748
:1005D00089FF042307492269934206D2C85CEA18BE
:1005E000043A013310709BB2F5E770BD200400108F
:1005F00008040010A0040010F0B52B4C0023A54403
:1006000080240600294D2A48640008211A06570054
:10061000002A02DA3A006A4000E03A000139C9B221
:100620000029F4D19F00011D01337A50A342ECD17F
:10063000012534006D42F8231B03F018001B002C29
:1006400024D080216A46C900FFF7B4FF0022194B6D
:10065000E4186B46985C002307211F000123184211
:1006600001D08B401F4340080139F7D23B00290ECF
:100670004B40DBB20E499B00CB185B682D025D40FE
:1006800080230132DB009A42E3D1D4E71F23012209
:10069000154202D0110099400C436D08013BF7D27E
:1006A000E043054B9D44F0BDFCFBFFFFB71DC104BB
:1006B000A008001000FCFFFF040400000622064B07
:1006C00010B51A70054B053A1A61FFF70BFFFFF7DB
:1006D0005DFF0028FBD110BD2004001008040010AD
:1006E000DE23064A5B0011680B401360BE231168CD
:1006F000FF330B4001210B4313607047008005401E
:1007000073B5A0208C248025032300210A4E000607
:10071000A4016D00055101910091009AB24206D8E2
:10072000019A01320192009A01320092F5E7013BF1
:0C073000002BEFD173BDC0463F0D03004D
:10080000287A0000080000101C00000024000010DE
:10081000E80A000010B500F006F910BD10B500F0B0
:1008200002F910BD10B500F0FEF810BD10B500F0D3
:10083000FAF810BD10B503F069FD10BD10B504F055
:10084000C3FE10BD10B504F051FA10BD10B503F091
:1008500009FC10BD10B504F0DDFC10BD10B504F0AE
:1008600033FD10BD10B504F041FA10BD10B500F015
:10087000D3F810BD10B500F0D6F810BD10B500F0DB
:10088000D2F810BD10B500F0CEF810BD10B500F0D4
:10089000CAF810BD10B500F0C6F810BD10B500F0D4
:1008A000C2F810BD10B500F0BEF810BD10B500F0D4
:1008B000BAF810BD10B500F0B6F810BD10B500F0D4
:1008C000B2F810BD10B500F0AEF810BD10B500F0D4
:1008D000AAF810BD10B500F0A6F810BD10B500F0D4
:1008E000A2F810BD10B503F0A9FD10BD10B504F0BD
:1008F000FDF910BD10B504F0F9F910BD10B500F008
:1009000092F810BD10B500F08EF810BD10B500F0D3
:100910008AF810BD10B500F086F810BD10B500F0D3
:1009200082F810BD70B52F4B2F498B420BD200229D
:100930001C685D689868904203D916595651043274
:10094000F9E70C33F1E70020284B29498B4209D203
:1009500000221D685C68944202D950510432FAE7C3
:100960000833F3E72348244A0021121A921005F0B5
:1009700067FB2248224A0021121A921005F060FB00
:100980008E22DA251F4B920098581F49ED01014035
:100990002943995000211D48196459640131596453
:1009A0000469016198581A4C0440DB20C0010443DB
:1009B00041209C5098609858164C204028439850ED
:1009C000DC68104A01200C42FAD0032390671367B9
:1009D000002353675067113003F05DFA05F034FBD4
:1009E00070BDC046000800000C0800000C080000A4
:1009F000140800000C0B00102A1300100C0B001040
:100A0000CC12001000800440FD8000000000044073
:100A1000FF8000007F80000010B501F0B9FF10BD1D
:100A200080B500AFFEE710B5FFF7FAFF10BDFFFF7E
:100A3000F0B5C3B003F0E9FAD34B64211860FFF7B7
:100A400047FBD24B013898420DD8D14AD14950606A
:100A5000C0200B6A00061B021B0A03430B62002323
:100A60009360073313600127072003F014FAFF2176
:100A70009020B024C84B40011F60C84B24031A6863
:100A8000C74D8A43FB390A431A601A68C5490A40B0
:100A90001A605A680A4002435A605868C24A1040B5
:100AA0002043D82458609868640310402043802471
:100AB0009860986864050002000A2043D02498607A
:100AC0001869640310402043C0241861D868640585
:100AD0000002000A2043C824D86018696401084055
:100AE0002043FF2418611869A043F03C204318619B
:100AF000586A00240140C020C00001435962596A6D
:100B00000E200A40E021C9020A435A62A74AA84BB4
:100B1000D16F0B40D367A74B1C70A74B31331C70B0
:100B200003F0B9F9032003F025FA2B68A34AE12169
:100B30001340042213432B60A14B49039E681F23DB
:100B40001E40A04BF6195E433000FFF7C1FA924BEE
:100B500001901860022003F00DFAFF229A4B0199D0
:100B60001A603000FFF7B4FAE12100024903FFF7F1
:100B7000AFFAFF231840954B954E186003F00EFA1C
:100B8000E1212800490203F035FA2B68914A8021BF
:100B900013403B432B606B688F4AC90513407A4A68
:100BA0006B608E4B04321A60802292005A608C4A2D
:100BB0001C61DC609F608B4B04321A6080225A609B
:100BC000C0221C61DC609F60EF60874D9200AB58D3
:100BD0000F201B021B0A0B43AB5008232B6003F0B2
:100BE0005AF9042003F0C6F93368744AE12113402E
:100BF0000422134333603000490203F0FBF93368E9
:100C0000744A7A4813403B4333607368724A134016
:100C10007360774A774B1A60802292005A609F6017
:100C20001C61DC60744A754B1A60802252005A6065
:100C30009F601C61DC601023F760714E2B60DB1934
:100C4000F367704B023A19680A401A609F605F614F
:100C500080235B0421002B60042205F0F1F91520AC
:100C600003F028F9132003F025F9082003F022F9F6
:100C70000A2003F01FF902230F227365736D0B2006
:100C80001340D2191343736503F005F9200003F0F4
:100C900071F982235C4CFF332268494E1340236074
:100CA000BE232268FF331340042213432360F02342
:100CB0001B03236203F0A9F95449FFF709FA00283E
:100CC00000D138000138606203F09FF9636A3D2368
:100CD000E36001244E4B4F4F5F602C6003F0EAFB52
:100CE00001004D4803F07CFA082003F083FE3F2505
:100CF0008E2275629200B158484B0B40DA21C9012F
:100D00000B43B350716A0026CB051B0F9B00FF18E5
:100D10001F2319400919A1407869FFF7D9F98708FD
:100D2000112003F0B8F880239620FF220221DB0572
:100D300040001E6047435A60394A5A61134A9A611B
:100D40005F601A682A400A431A601A681540AA228E
:100D50002C431C609A60553A9A60802404F01AFC77
:100D6000640303AA0421300003F09EFF039B0133B8
:100D70005AD180235B01F618A642F2D1294803F02C
:100D800095F904F02FFC52E024000010FFFFFF0053
:100D900010E000E000ED00E09480044000C000405E
:100DA00000400640FF00FFFFFFFF00FF04800440FB
:100DB0007FFFEF25C00200108808001001DAFC0058
:100DC00000800440001BB700F0800440F480044021
:100DD000008006407CDAFC0006030100D00500100C
:100DE00024020010E405001000E100E004070010F8
:100DF000F4080010E0080010C1020010F40A00100E
:100E0000FC800440004000A000800540A086010056
:100E100008050010A40F00002C070010BF80000080
:100E2000FFFF0000F80F00004A4803F03FF982225C
:100E3000494CD2000021200005F002F9EB202200ED
:100E40000421000303F030FF444D2368AB4201D975
:100E5000002323602168424803F07CF9EC20414ADA
:100E60000421000303F020FF6368AB4202D9802312
:100E70005B01636061683C48A16003F06BF9082086
:100E800003F0B8FD39493A4803F0AAF904F066FDC9
:100E9000ED20384C04212200000303F005FF2368F5
:100EA000013301D100232360334803F0FFF82068A9
:100EB00003F0E6F8314803F0F9F8A0231B065A7C4A
:100EC0002F4B002A01D1012200E000225A701A7033
:100ED00003F024FA2B492C4B002805D001220A707C
:100EE0009A701A705A7003E00870987018705870F1
:100EF000A0231B069B7D254ADBB225482549002BF4
:100F000000D001230370537013700B7003F040FA8C
:100F100003A804F045FC03F001FA1F4B002802D09F
:100F200001221A7700E01877642500243E99180002
:100F300069439C6103F054F9184B290018481C7749
:100F40009C6103F04DF904F0CDF900F079F803F05D
:100F50001DF9C04605100000440C0010FF0F0E00E4
:100F600016100000480C001029100000407E0500FB
:100F7000C0080010FC0400103B100000EC4D000005
:100F80000807001028070010180700107808001044
:100F90007508001074080010540800103408001080
:100FA00040080010B5540000BB540000B9540000C4
:100FB000B7540000A954000000000000C027090039
:100FC00090051000C05C1500F0B31A00200B200043
:100FD000009F2400E0322900C0C62D005097310048
:100FE000E06735007038390000093D0040164000C8
:100FF00080234300C0304600466C61736820656DF5
:101000007074790A00466C617368206E6F74206595
:101010006D7074790A000A4C6F67205772697465A5
:101020002041646472203078000A4C6F672052655A
:1010300061642041646472203078004B6D3A200076
:10104000F0B5D94CD948A54403F030F8A0230122CB
:10105000D74C1B069A7221000A2001F037FE01F0DE
:1010600045FED449D44803F0BBF8D44803F01EF839
:10107000D34803F01BF80194CF4C200003F092F802
:101080002500002801D000F06FFFCE4ECE49376812
:10109000381C06F09BFC00281DD0CB49381C06F0FC
:1010A00035FB306056A804F0DDF85A985B990022B1
:1010B000C64B05F019FFC64B060018680F0006F076
:1010C000DDF902000B003000390006F097F806F059
:1010D00081F904F049FB01F001F98023AA22DB0524
:1010E000207B9A60553A9A600628C5D806F094FC91
:1010F00007004400D60166025E03F005A601B54B69
:10110000B54AAD4E1A6080220024920001255A6033
:1011100032009D601C61DC60B04B0D321A60802291
:10112000AF495200AF485A609D601C61DC6004F01A
:101130000FFFFA22019B5200202156A804F036FF2F
:10114000A94956A805F0B0FBA84BA04203D05C7398
:101150009C73357390E79A7B0132D2B29A73052A59
:1011600001D100F064FD5A7B511C5973052A83D1CB
:10117000587301F0BBFD7FE7FA2100229C4B8900E8
:10118000313316A81A7003F02BF816A803F00AF8EA
:10119000944D002812D0280096490D3004F0D8FE56
:1011A000C021019BC82256A804F000FF8E4F56A80C
:1011B000390005F079FB002813D157E128008E494A
:1011C000683004F0C5FE8021019B4900642256A8C6
:1011D00004F0ECFE844956A805F066FB0028DAD13D
:1011E00044E12800854E6C30310004F0B1FE019BD3
:1011F0006422802156A804F0D9FE390056A805F0D3
:1012000053FB0296002800D130E120227C4B56A9E6
:101210000E78002E0FD09E1980363078104208D0FC
:101220000F22784804F008FF0022714B01265A77FC
:1012300001E00131ECE7744802F038FF714802F038
:1012400035FF724802F032FF002E00D10EE1FA2184
:1012500016A8890002F0C4FF012616A802F0A2FF1A
:10126000071E44D128006A49753004F071FE019BC5
:101270006422402156A804F099FE290056A87F3127
:1012800005F012FB3E000028E7D0624E0299701D67
:1012900004F05EFE4021019B642256A804F086FE05
:1012A000514956A805F000FB002800D1DEE0A1213D
:1012B000594F06AB4900C9180F22380004F0BCFE94
:1012C0004B4B00211A0001252D3231335348117048
:1012D0001D7002F0EBFE380002F0E8FE4B4802F011
:1012E000E5FEFA2116A8890002F07AFF15E0002E2B
:1012F00000D1BBE0C9E7474802990E3004F028FE50
:10130000019B6422402156A804F050FE364956A89D
:1013100005F0CAFA3D00002807D116A802F042FFE6
:10132000071EE8D0002D00D1A0E03D4916A802F02C
:1013300057FF13E030003B49213004F009FE019BC8
:101340006422402156A804F031FE56A801F092FB19
:10135000274D2B002E331B78002B05D116A802F049
:1013600021FF071EE6D081E02F4802F09FFE1F4BB1
:101370002F355F7301F0D4FC2B78002B74D02B4BEE
:10138000D4331B78002B03D0294802F08FFE6BE08A
:10139000284802F08BFE96212748490002F020FFE2
:1013A0000623237368E6C0469CFDFFFF91200000E2
:1013B000DD22000080FC0A00B4020010A32000001F
:1013C000EC4D0000400C001000606A4600408F4069
:1013D000FC040010E0080010F4080010F40A0010EB
:1013E000B8200000901F000037430000B403001035
:1013F00088080010CC200000DA200000EE4D00002C
:10140000C061000096080010E8200000ED4D0000CB
:10141000F020000010200000A6080010FB200000B3
:10142000E02E0000032100002121000038070010F9
:101430002D2100003E210000E8040010BE4D2800D0
:1014400002F0B0FE002800D116E6BC4802F02EFEE5
:1014500001F066FCBA4B1A002F321278002A12D122
:101460002E331B78002B9CD002239AE7B54A537B7E
:10147000591C5173192B00D0FEE50023B14A537358
:10148000B14A1373F8E5B14BD4331B78002BEBD181
:1014900096212800490002F0A3FEEDE516A804F00D
:1014A0007FF980220021520056A804F0C9FDA84906
:1014B00056A82B3105F046F916A956A805F042F9B1
:1014C000A44956A805F03EF9A34956A804F040FDEA
:1014D0002021019B64220EA804F068FD9F4D0EA8F8
:1014E000290005F0E1F9002800D11DE19C4802F037
:1014F000DDFD9C490BA802F073FE0BA802F052FE22
:10150000011E00D010E1802256A8520004F098FD80
:101510008F4956A83F3105F015F91CA956A805F0CA
:1015200011F9914956A805F00DF91FA956A805F023
:1015300009F9884956A805F005F9874956A804F025
:1015400007FDFA222021019B92000EA804F02EFD37
:1015500086490EA805F0A8F9002810D00025844877
:1015600002F0A4FD834802F0A1FD764B56A85D73FE
:1015700004F016F9804B1A78AA4215D00DE0290024
:101580000EA805F091F90028E8D101F0C9FB6C4BD9
:101590002E331B78002BB0D1C6E01D7002F01EFC6C
:1015A0000523002800D0FCE662A9744805F004F980
:1015B00082A9734805F000F90323F2E6644D664FF3
:1015C000280039004E3004F0C3FC019B64228021C6
:1015D00056A804F0EBFC614E56A8310005F064F902
:1015E000594C002801D1002591E0280039006930CC
:1015F00004F0AEFC2021019B642256A804F0D6FC26
:10160000310056A805F050F90028ECD002F0E6FBB6
:10161000051E7CD0012001F0C5F94A4E002335009B
:10162000F3730F3556A804F0B9FC5649280005F0AD
:1016300089F8A72106AB4900C918280005F082F8EF
:101640005149280005F07EF85049280005F07AF845
:10165000AF2106AB4900C918280005F073F8FF2236
:101660004B4B3500186B1A6301380F281DD806F054
:10167000CBF9080C1C101C1C1C141C1C1C1C1C1C56
:101680001C18300043490F3012E0300042490F303F
:101690000EE0300041490F300AE0300040490F3081
:1016A00006E030003F490F3002E028003E490F308D
:1016B0000F3505F047F8280005F0A0F8019A81B22F
:1016C000280001F0B7FA0121280001F018F8019A6A
:1016D00081B2280001F0AEFA00280CD0244802F0B4
:1016E000E5FC0122164B30331A700023737301F0AE
:1016F00059FA042315E0727B531CDBB2052A01D092
:10170000737311E07073207301F04CF90CE01A4B05
:101710001A78002A08D01D7002F060FB002802D061
:101720000523237300E02573064A537B591C51732C
:10173000052B00D0A0E4A0E6E8040010532100002F
:1017400088080010B4030010B4020010380700101D
:10175000102000006E210000EE4D00003743000015
:101760007121000070170000812100008521000018
:10177000B62200008C210000DC0800104505001096
:10178000C50500109E210000A3210000A320000039
:1017900000800440A8210000B1210000BA2100000F
:1017A000C3210000CC210000D52100009D4E122253
:1017B00031000EA804F040FC212206AB9B181B78D8
:1017C000032B14D106AB013A9B181B78012B0ED1C9
:1017D000954C0F34200004F025F8019A81B22000C6
:1017E00001F028FA002800D13DE20023737002F0D6
:1017F0001DFE002818D08C4C01210F34200000F071
:101800007EFF019A81B2200001F014FA002800D175
:1018100029E28649280002F0E3FC8549854802F068
:10182000DFFC0123029300E00290834C200002F0D1
:10183000B9FC002820D0814802F038FC7A4E012102
:101840000F36300000F05BFF019A81B2300001F0EA
:10185000F1F9002800D106E204F034FB0100200079
:1018600002F0BEFC7249734802F0BAFC6F492800CE
:1018700002F0B6FC012302936E4C200002F092FCB1
:1018800000281AD06E4802F011FC674E6D490F36E1
:10189000300001F05BF8019A81B2300001F0CAF922
:1018A000002800D1DFE16249200002F099FC5F4985
:1018B000280002F095FC01230293634802F072FCB9
:1018C000002800D152E105210BA802F089FC0BA8E9
:1018D00002F068FC041E00D043E15C4B06AA5C4D9C
:1018E0009B18DC706A682B68934200D139E1802232
:1018F0002100520056A804F0A3FB2100092208A8E9
:1019000004F09EFB69682C684B1CFF338C4203D9A2
:101910009C4209D2641A04E04E4A934204D9E1235E
:101920005C1AA4B2FF2C01D98024640016AE4A4888
:1019300002F010FC32002100686803F0B5F90221C2
:10194000300004F00CFF03210390300004F007FF87
:10195000039B0700002B3FD0002851D0834207D9BA
:101960009E1B6B683D489E196E6002F09FFB82E0F3
:101970000026041F2100067006A804F01DFF039B2B
:1019800026705C1C200004F039FF81B2200002F0B8
:101990004DFB010008A802F0C7FB09A906A804F046
:1019A000E9FE2A4D06ABED18B04209D1210056A838
:1019B00004F002FF01232A48EB7002F077FB03E0FA
:1019C000284802F073FBEE70214B5A68561C039AAC
:1019D000BF1AF7195F604EE0002808D1224802F0D4
:1019E00065FB402306AAFF339B181F7040E06B463F
:1019F0001B7BBE1B03706B68581C86196E603AE037
:101A00001A4802F053FB03980221013004F0A7FEAC
:101A100000282DD0431E1F706B68801B181868604B
:101A200029E0C0467C060010B403001080FC0A00C8
:101A300030750000C4040010DC040010E121000037
:101A4000F621000096080010D00400103F020000AC
:101A5000440C0010FF0F0E000822000014220000AA
:101A60001B220000242200002D220000342200004E
:101A70006B681C196C60D64B5A681100D54A9142AC
:101A800001D900225A601A685B689A4201D102F0BB
:101A9000CFFFD14B06AA9B18DB78002B00D116E7AD
:101AA0008022CE4C52000F340021200004F0C8FAEE
:101AB00056A9200004F080FE200004F09FFE0028BC
:101AC0004FDDC74802F0F2FA80220021520056A8EA
:101AD00004F0B6FAC34F2000390004F0E5FE03908D
:101AE00000283ED0C049200004F0DEFE061E38D09B
:101AF000BE4D280004F082FE0F2832D1390056A8CE
:101B000004F020FE00232900337056A804F01AFECA
:101B1000039956A8023104F015FE56A801F076FE8E
:101B2000132156A801F07AFEAF4956A804F00AFE28
:101B300056A9200004F040FE200004F05FFE019A48
:101B400081B2200001F076F8002800D18BE0A8498E
:101B5000A84802F045FBA849A84802F041FB012330
:101B60000293FA21A648890002F03AFBA54C200016
:101B700002F018FBA14E002872D0A34802F096FA9A
:101B800001F0CEF8A14B022802D01F78002F0CD014
:101B900000216420197001F099F801F021F802F099
:101BA0001DF9002800D081E05DE0994B1B89002BD6
:101BB00041D08021894D019A0F354900280000F05D
:101BC00015FF002837D002223900FF3256A804F052
:101BD00037FA012256A9280003F040FD01280DD153
:101BE00056A802F063FA56A804F008FE019A81B2E2
:101BF00056A801F01FF8002835D007E0022805D1CB
:101C000000F0EEFF02F0EAF800284FD17A493000E8
:101C100002F0E6FA7649774802F0E2FA6E4B06AA3D
:101C20009B185B78002B04D07A4802F03FFA02F050
:101C3000ADFA01330293FA23774A5B0012689A42A5
:101C400011DC734B1A002E321278002A0BD030337D
:101C50001B78002B07D096212000490002F0C0FA23
:101C6000029B013318D15D4A694C537B591C517357
:101C7000052B06D100235373604A3034237013734D
:101C800016E000F08FFF654802F010FA0022A389E9
:101C90006381614B1A600BE0029B012B03D1002290
:101CA0004E4B5A7304E0029B042B01D1052333737E
:101CB000574B2F331B78002B01D1FFF7DDF9584B21
:101CC000D4331B78002B01D0FFF7D6F9FFF7D5FBF3
:101CD0000122544B54481A61544A554BD16F0B4062
:101CE000D367544A0021121A921004F0A9F9002374
:101CF0001F001C001D00504A1380504A138080238F
:101D00005522DB058026AA21F60599609A60002DF0
:101D100018D14323422056AE3370FF3006ABC018B3
:101D2000324904F049FD300004F068FD2A0081B218
:101D3000300000F07FFF424916A802F051FA072355
:101D4000049314E0022DDDD106A802F0BFF9019042
:101D5000002800D1E6E0002C35D106AB1D78012D1E
:101D600007D1FA2116A8C90002F03AFA2C00022580
:101D7000C5E7042D00D05AE700F032FF0EAB18196A
:101D8000013402F0A3F9082CF8D10E9B2D481EBA9D
:101D90000F9B1DBA02F08AF9002008960B9502F0FD
:101DA00029FEF0220421120308A802F0E3FD264ACE
:101DB00004210BA802F0DEFD200002F01BFE002033
:101DC00002F018FE33E7012C40D106AB1F78CDE7B7
:101DD000440C0010FF0F0E003F020000B40300107F
:101DE0003B22000046220000DF2100009608001080
:101DF00030750000C404001080FC0A00B40200101A
:101E0000D0040010E804001049220000DC08001093
:101E1000880800105A220000F40400106A22000012
:101E20003807001000C006400C0B0010048004406E
:101E3000FFFFEE252A1300100E0F00100C0F0010EC
:101E4000102700008F22000004000F00022C06D192
:101E500006AA3B0212789BB213431F0060E0444A7B
:101E6000444B944204D106AA12781C0005927EE7E6
:101E70009C424FD18021059B06AA12781B023E4C42
:101E80009BB21343C9002000059302F0CFF8059BD5
:101E9000834225D12021062306AA521813701F3928
:101EA00000220EA800F0C6FEAA23B360553BB36023
:101EB000324802F0FBF8380002F0E2F8002002F0AD
:101EC00099FD80212E4BC900FA189202200002F0E1
:101ED00051FD082002F08EFD2A4802F0E7F817E0D5
:101EE000049B5C1EA4B2002B00D1A0E62021152388
:101EF00006AA52182448137002F0D8F800220121D3
:101F00000EA800F097FE0021642000F0DFFE04948C
:101F100000242CE7184B06AA1B191278033B1A70F1
:101F2000013424E716A802F03DF9002800D11EE78D
:101F3000AA23B360553BB360049B5C1EA4B2002B84
:101F400000D174E6114802F0B1F815230EA8019AE9
:101F50000121037000F06EFEFA2116A8C90002F0FC
:101F60003FF90494019C02E799239B009D44F0BD36
:101F700003040000040400000C0B0010A422000065
:101F8000DF030000B5220000BC220000CE220000CA
:101F900041542B4346554E3D312C310D00415445A3
:101FA000303B2B434D45453D313B23534C45443D50
:101FB000332C332C373B2B435245473D303B2B438F
:101FC000475245473D303B2B43494E443D302C3032
:101FD0002C302C302C302C302C302C302C303B2B17
:101FE000434E4D493D322C312C302C302C303B2B84
:101FF000434D47463D310D0041540D0041542B43A4
:1020000047534E0D0041542B4350494E3F0D005253
:10201000454144590041542B43494D490D00415419
:102020002B434D45523D322C302C302C322C300D70
:102030000041542B435245473F0D0041542B434729
:1020400044434F4E543D312C224950222C22004112
:10205000542353474143543D312C312C22004154E9
:1020600023534346473D312C312C3330302C343808
:10207000302C3130302C310D00415423534346472E
:102080004558543D312C302C302C302C302C300D18
:10209000000A506F7765722D4F6E204D6F64756C1E
:1020A000650A00523232373774733B417072203107
:1020B0003320323031373B000A4D6F64756C652038
:1020C000736F66742D72657365740A004563686F7B
:1020D0002064697361626C650A00496E69742E2020
:1020E0006D6F64756C650A000A494D45493A2000D8
:1020F0000A526561642050494E0A000A494D53490D
:102100003A20000A57616974696E672047534D2071
:10211000526567697374726174696F6E2E2E2E0A30
:1021200000526567697374657265640A00526F6175
:102130006D696E6720616C6C6F7765640A00526F21
:10214000616D696E67206E6F742D616C6C6F776561
:10215000640A00506572696F64696320636865632F
:102160006B20696E20726F616D696E670A00220DC7
:10217000004163746976617465205044502E2E2EA0
:1021800000222C22002353474143540041747461C0
:102190006368656420746F20475052530A005B5394
:1021A000543B003B54302D003B504F525253545D32
:1021B000003B4558545253545D003B5744545253CE
:1021C000545D003B424F445253545D003B535953BE
:1021D0005253545D003B5245434F4E4E4543545D70
:1021E000000A53656E6420706572696F64696320CC
:1021F000646174610A000A53656E64204B65657002
:102200002D416C6976650A000A52656164696E67E2
:10221000203078000A4572722031000A436F7272D2
:10222000656374000A43524320457272000A457286
:10223000722032000A4572722034000A53656E64BF
:10224000204C6F670A005B54000A506572696F6426
:10225000696320436865636B0A000A4E6565642004
:10226000746F2072657365740A000A434F4E4E45C1
:102270004354454420544F20534552564552205212
:10228000455455524E4544204552524F520A00572C
:10229000726974696E67207369676E6174757265BF
:1022A0002E2E2E0057726974696E67206672616DFA
:1022B000652E2E2E0020446F6E650A004352432087
:1022C0006572726F72204E414B696E670A005265EB
:1022D000632E2074696D656F75740A00F0B5A74CA4
:1022E0008FB080220021200003F0AAFE0D23A44D10
:1022F0000093220017332900A24801F083FF2F002A
:10230000002800D131E10722002109A803F098FE3E
:102310000622210009A804F09BFA00232B759A4D90
:102320002E0009A9286804F025FA002805D13900F3
:102330006B6814312000984704E0330008351833E7
:102340009D42EED13D7D012D00D00EE1200001F037
:10235000ADFE8E4B1D70A023FA7E1B06412A00D0D5
:1023600001E11D728A4B4C331B78012B02D10020F6
:1023700002F02AF8874D2023F85E3C216843FDF7E0
:102380009FFE1E23FC5E06216C430419786AFDF74C
:1023900097FE3B7F04194E2B00D064422C23F85E3D
:1023A0003C21BC676843FDF78BFE2A23FE5E0621B5
:1023B0006E438619386BFDF783FE3B0028331B788C
:1023C0008619452B00D07642734BFE671D69002DA0
:1023D00000D193E0002C00D190E05B690293002BC8
:1023E00000D18BE0002E00D188E0200005F03BF802
:1023F0006A4A6B4B04F0BAFC00226A4B04F074FD8D
:1024000004900591601B05F02EF8644A644B04F0BB
:10241000ADFC0022634B04F067FD0022624B04F028
:10242000A5FC04000D0004F0D1F8069007912000EF
:10243000290004F0CBF802000B000698079904F07D
:1024400095FC029B06900791F01A05F00CF8534A90
:10245000534B04F08BFC0022524B04F045FD00224C
:10246000514B04F083FC04000D0004F0AFF802901F
:1024700003912000290004F0A9F802000B00029843
:10248000039904F073FC04000D000498059903F00F
:1024900069FE02000B002000290004F067FC040024
:1024A0000D000498059903F05DFE02000B0020006A
:1024B000290004F05BFC069A079B04F09FFE0400D1
:1024C0000D0004F09FF822002B00029003910020E1
:1024D000364904F0AFFD04F095F802000B000298B5
:1024E000039903F0B5FD02000B0004F087FE002203
:1024F0002F4B04F03BFC04000D0001E000240025FC
:102500002C4B254E1B78B462F562002B19D0BA8E85
:10251000294B5343294A934213DD29492200086875
:1025200049682B0004F06AFE254B18605960306B37
:1025300005F02CFA22002B0004F060FE04F0F6FEF9
:1025400030633B0088331868596804F021FF09A9FB
:102550000A2203F02BFF39000F487831182210307F
:1025600003F06AFD01E000221A7201F0BBFF02F0E5
:1025700027FB01F080FE0FB0F0BDC046100B00102D
:10258000900B001000C0064008000010F804001076
:10259000B4060010A0860100100C001011E7FAA18B
:1025A00046DF913F006AF8400000E03F0000F03F46
:1025B000AE4D5841180700103C070000B70B000053
:1025C000180C001070B50400A0B080220E00684600
:1025D000002103F035FD21008022684603F02CFD28
:1025E0002021684604F0BBF8002801D1002011E04A
:1025F000094C0025210004F069F90028F6D00135C6
:10260000B54202D103F0D6FF04E02100002004F01F
:102610005DF9F2E720B070BD642F000070B51600C0
:1026200096220C000500DEB05200002113A803F032
:1026300007FD4022002103A803F002FD2200002133
:10264000280003F0FDFC0A2201A9200003F0AEFEE1
:102650001B4C03A8210004F075F801A903A804F09D
:1026600071F8184903A804F06DF8174903A803F09E
:102670006FFC962133004900C82213A803F096FC92
:10268000210013A8103104F00FF9002801D1002017
:1026900013E00E4904F008F9041EF8D0022113A833
:1026A000FFF790FF82B200231000834204DAE118A2
:1026B0008978E9540133F8E710005EB070BDC04678
:1026C000CC2E00006F210000EE4D0000EC4D00000C
:1026D00003004E2807D1302045290FD00430572958
:1026E0000CD103380AE03420532B07D10238452996
:1026F00004D05739481E8141333108007047802289
:10270000F0B50400884BA5B01B6852000F000021F3
:10271000019303F095FC8549200004F013F80CADFB
:1027200016A803F03BFC280002F0BEFD00212000AB
:1027300004F015F80600002F09D05E2102ABC9187D
:1027400004F000F83000002104F009F80600290028
:10275000300001F00AF8290000F07AFF290000F0AB
:1027600059FF290000F03EFF297C07002879FFF778
:10277000AFFF30226E4B38701B7806A89B187A701A
:10278000BB7002F06FFD0A980B990022694B04F0B0
:10279000ABFB04F0CBFD684BFE1C1B68071C0093D1
:1027A00005F0A8F8009B03AD0A22C018290003F029
:1027B000FDFD009805F0E3F8391C05F03FF805F041
:1027C00099F80100280001F0AFFC00232B7202AB46
:1027D000D91D300003F0B6FF0A222900169803F035
:1027E000E5FD280004F00AF8012803D15349300020
:1027F00003F0A8FF2900300003F0A4FF5049200097
:1028000003F0A0FF1A21200001F008F84D4DEB69FC
:10281000002B08D0200000F0F9FF1D21200000F05F
:10282000FDFF0023EB61019B1D042D0EEB060DD572
:10283000200000F0EBFF1721200000F0EFFF200048
:1028400000F0E4FF1921200000F0E8FFAB0606D5F8
:10285000200000F0DBFF1821200000F0DFFF6B46B6
:102860001E79730606D5200000F0D0FF0C21200051
:1028700000F0D4FFF30906D0200000F0C7FF0C21C0
:10288000200000F0CBFFEB0706D5200000F0BEFFD4
:102890000921200000F0C2FFAB0706D5200000F0A0
:1028A000B5FF0921200000F0B9FFF30606D520008E
:1028B00000F0ACFF0421200000F0B0FFB30606D505
:1028C000200000F0A3FF0421200000F0A7FF6B060A
:1028D00006D5200000F09AFF1C21200000F09EFF8A
:1028E0006B0706D5200000F091FF0A21200000F0C0
:1028F00095FFA0231B069B7D002B06D1200000F036
:1029000085FF0B21200000F089FF0F49200003F014
:1029100019FF04220021044803F092FB200003F079
:102920006DFF25B0F0BDC046040700104622000030
:102930001807001000408F40FC040010C33A00004C
:10294000A621000090060010DF210000802270B553
:1029500004000D005200002103F072FB0949200021
:1029600003F0F0FE2900200003F0ECFE06492000F1
:1029700003F0E8FE0549200003F0E4FE200003F028
:102980003DFF70BD672F00006B2F0000DF210000AE
:10299000034B10B51B6800205B691B68984710BD8E
:1029A000F81FFF1F1FB50C4904001731684603F0DC
:1029B00003FF0A49002C00D10949684603F0C2FE12
:1029C0006846084903F0C4FA074B322210216846D2
:1029D00003F0ECFA1FBDC046CC2E000040430000BF
:1029E0006E2F0000EE4D0000DD220000F0B50C005F
:1029F000D1B017000A000021060003F021FBFF2CD4
:102A000001D9002420E03A0021003000FFF706FE43
:102A100027E015496846203103F046FF00281FD003
:102A20000421FFF7CFFD80B2002819D080213A00A1
:102A3000490010A8FFF7F2FD050010A930192A007F
:102A400003F0FAFA6419A4B20849094803F080FABD
:102A50003B00C8224021684603F0A8FA0028D8D1DC
:102A6000200051B0F0BDC046CC2E0000EE4D00005D
:102A7000712F00000D4910B5253103F015FF002816
:102A800012D00221FFF79EFD094B00211A002F33BF
:102A90002E3211701970012801D1107004E0052840
:102AA00002D101211170197010BDC046CC2E00005A
:102AB00088080010F0B5B7B01A23002415006A4644
:102AC0000700137054700E00C822210004A803F000
:102AD000B7FA2D4904A82D3103F034FE390004A8BB
:102AE00003F030FE294904A803F02CFE284904A86D
:102AF00003F02EFAC822210004A803F0A1FAC8228C
:102B00002B00110004A803F051FA3E2104A803F0A1
:102B100026FE0300A04233D0C822210004A803F0FF
:102B20008FFA310004A803F00DFE694604A803F0F3
:102B300009FE184904A803F00BFAFA2101A889003C
:102B400001F04EFB01A801F02DFB011E14D1C8229B
:102B500004A803F075FAC8222B00110004A803F0A2
:102B600025FA0D4904A803F09FFE0028EAD00B487F
:102B700001F09CFA012303E0094801F097FA0023D1
:102B8000180037B0F0BDC046CC2E00006F21000009
:102B90007A2F0000EE4D0000374300008A2F00001E
:102BA000942F000010B50C4C0C49200001F018FBCC
:102BB0002000FA210C30890001F012FB03F082F9A9
:102BC00001002000183001F00BFB2000962124307A
:102BD000490001F005FB10BDC40400103075000071
:102BE00030B505240F4D89B036350F49280003F064
:102BF000AFF9FA22202100235200684603F0D6F9EB
:102C00000A49684603F050FE002804D0084801F045
:102C10004DFA012004E0013CE4B2002CE5D1200093
:102C200009B030BDCC2E0000A52F000037430000B6
:102C3000B622000070B50E001400A2B020220021C0
:102C4000050002A803F0FCF90A226946300003F0EF
:102C5000ADFB1A4902A83F3103F074FD694602A892
:102C600003F070FD164902A803F06CFD154E02A892
:102C7000310003F06DF980212300C82202A803F07F
:102C800095F93E2102A803F06AFD002813D0310017
:102C9000280003F05DF9280001F008FA2300C8229B
:102CA000802102A803F082F9074902A803F0FCFD85
:102CB000431E9841C0B222B070BDC046CC2E000069
:102CC0006F210000EE4D0000374300001FB50C00DF
:102CD000010001A801F084FA01A801F063FA0028BC
:102CE00003D1002CF8D0A047F6E71FBD70B50A4805
:102CF000A02501F0DBF90123084C2D066B7521009E
:102D00001920FFF7E3FF0023AF206B75210080003F
:102D1000FFF7DCFF70BDC046B82F0000DD220000C9
:102D2000F0B5604E604C3000A5444E305F4903F072
:102D30000FF9C8225E4D11002B000AA803F036F9E6
:102D40000AA801F0B3F90AA8FFF794FE594C0AA8A3
:102D5000210003F0A9FD0196574E002805D002215D
:102D6000FFF730FC0A2358437086611D0AA803F060
:102D70009BFD002803D00121FFF724FC30602022B6
:102D8000002102A803F05CF940220AA97BA803F005
:102D900053F94A497BA803F087FD461C22213000E5
:102DA00003F0DDFC002E07D0002805D00023310001
:102DB000037002A803F000FD02A801F077F93CA817
:102DC00002F0EEFC02220021FF327BA803F038F96A
:102DD00021000AA80C3103F067FD061E01D1002670
:102DE00023E0374903F060FD071EF8D00D213000C5
:102DF00003F0B5FC0028F2D000227BA90270380055
:102E000002F02CFC060001280FD17BA801F04EF93E
:102E10002A007BA902A8FFF74DFE2A4B02AA9B18A5
:102E20005B78002B01D001F0B1F901990AA820319B
:102E300003F03AFD204D071E12D00221FFF7C2FB1E
:102E40000321A8803800FFF7BDFB0421E88038008B
:102E5000FFF7B8FB052128813800FFF7B3FB688135
:102E60006A89AB8918499A4201D2002302E0086BB3
:102E7000D31A1B180B6321000AA81331AA8103F08F
:102E800013FD002809D00221FFF79CFB30350028F4
:102E900001D1287001E001232B703000BD239B007D
:102EA0009D44F0BDCC2E00000CFDFFFFEE4D000058
:102EB000DD2200004C2F000088080010CC2F0000FD
:102EC000CF2F0000E3020000C4040010415423533C
:102ED000524543563D312C3235360D005352454351
:102EE000563A00415423534C45443D002353493A3C
:102EF000002B435245473A200041542B434D475342
:102F00003D0041542353483D310D00415423535358
:102F1000454E444558543D312C0041542B434D47B8
:102F2000523D313B2B4353513B2B435245473F3B93
:102F3000234342433B2B434D47443D312C343B23F9
:102F400053493D313B2353533D310D00234342430D
:102F5000002B4353513A20002B434D47523A002354
:102F600053533A000D2C005B503B00373000300DBE
:102F70000041542353493D310D0053656E64696E21
:102F80006720534D532E2E2E0A00534D5320536568
:102F90006E740A0043616E6E6F742053656E642018
:102FA000534D530A000A436C6F73696E6720736F49
:102FB000636B65742E2E2E000A4D6F64756C652050
:102FC000686172642072657365740A00222B0023A5
:102FD00053455400244750524D430024475047471F
:102FE000410024475047534100FFFFFF30B5802286
:102FF0000C008FB052000021200003F021F8684639
:1030000002F0CCFF2549200003F0D6FB0E21200062
:10301000694403F097FB2249200003F093FB214D04
:103020002000290003F08EFB1F49200003F08AFBDB
:103030002900200003F086FB1C49200003F082FBDE
:103040001B49200003F07EFB1A49200003F07AFBA5
:10305000194B1A4931331B78002B00D11849200035
:1030600002F0A6FB174B18491B78002B00D117491B
:10307000200002F09DFB02F08DFA1549002800D1D6
:103080001449200002F094FB200002F09FFB002373
:103090000120FF3463700FB030BDC046803A00009D
:1030A0006B2F0000B62000008B3A00008E3A000023
:1030B00022220000943A000088080010963A00008E
:1030C0009C3A0000F8040010A23A0000A83A000060
:1030D000AE3A0000B63A000010B500200C00110016
:1030E00003F0F4FB0100200003F066FB10BDF0B517
:1030F000194E1A4A85B00C00310007000025FFF771
:10310000EBFF2021164B174A2800B630105C181828
:103110008030007808401CD001350F2DF4D1124AC0
:1031200069463800FFF7D8FF02F0EAFC20002900CA
:1031300002F054FB2000310002F03AFB2000694607
:1031400002F036FB200002F041FB00230120FF3497
:10315000637005B0F0BDC046EE070010B620000059
:10316000C061000038070010BE3A000007B5074AEA
:1031700001A9FFF7B1FF064901A803F0FBFA0028F7
:1031800001D101F003F800200EBDC046B6200000BA
:103190001922000070B50500A4B01D4A0C0014A946
:1031A000FFF79AFF1B4A69462800FFF795FF14A80E
:1031B00003F024FB14A9021F04A803F049FB04A890
:1031C00003F0F8F9060002F0CFFA134D002800D002
:1031D0006E6020000B2102F001FB0A2214A968682E
:1031E00003F0C0F80D4914A803F0ACFA14A92000AC
:1031F00002F0DEFA6946200002F0DAFA200002F05E
:10320000E5FA00230120FF34637024B070BDC0468E
:10321000B6200000BE3A0000F8040010C03A0000DA
:10322000F0B587B00C002F4A01A90700FFF754FF43
:103230002D4D01A8290003F09DFA00281BD12B4E2B
:103240002B4A3300D633187002A93800FFF744FF29
:10325000D336284800F02AFF3378002B01D102F042
:103260004FFC0821200002F0B9FA2900200002F0EA
:103270009FFA022222E0204D01A8290003F07AFAE9
:1032800000282CD11D4800F011FF184E01223300F8
:10329000D6331A7002A9164A3800D336FFF71CFF3E
:1032A0003378002B01D102F02BFC0821200002F022
:1032B00095FA2900200002F07BFA0122104B02A9A6
:1032C0005A701048102202F0B7FE200002A902F046
:1032D0006FFA200002F07AFA0023FF3463700120B5
:1032E00007B0F0BDB6200000C33A00003807001058
:1032F000BE3A0000C53A000019220000DE3A000084
:103300007C0600107E06001070B588B00C00164ACE
:1033100069460600FFF7E0FE684603F04BF9134DDF
:10332000134AF03504A928603000FFF7D5FE02F0FB
:10333000E7FB96212000890002F050FA0A22694634
:10334000286803F033F86946200002F031FA04A936
:10335000200002F02DFA200002F038FA00230120AC
:10336000FF34637008B070BDB6200000380700104D
:10337000BE3A0000F0B5214F87B00C003A00694614
:103380000600FFF7A9FE684603F014F91C4B3A004B
:103390001880694630001B4DFFF79EFE684603F01B
:1033A00009F9EA35184A02A928803000FFF794FE8F
:1033B00002F0A6FB2000072102F010FA104B0A22AF
:1033C0001888694602F0F2FF6946200002F0F0F921
:1033D0000A226946288802F0E9FF6946200002F0C7
:1033E000E7F902A9200002F0E3F9200002F0EEF96B
:1033F00000230120FF34637007B0F0BDB620000049
:103400002008001038070010BE3A000070B586B0E2
:103410006B46DE1C0C00164A31000020FFF75CFEF4
:1034200033780025303B012B1FD8124A280002A90F
:10343000FFF752FE3378104E303B5A1E9341D4367C
:10344000337002F05DFB2000052102F0C7F93378EC
:1034500001A9303320004D700B7002F0A9F9200053
:10346000FF3402F0B3F965700135280006B070BD75
:10347000B6200000BE3A000038070010F0B53A4F01
:103480008BB006AC3A0000200D002100FFF724FEAF
:103490003A00210000202678FFF71EFE200003F0EE
:1034A00089F83A00210001900020FFF715FE200066
:1034B00003F080F82D4A070002A90020FFF70CFE58
:1034C000302E06D12A4B01991A00E0321160E43304
:1034D00008E00020312E45D1254B01991A00D83241
:1034E0001160DC331F6002F00BFB02F09BFD042136
:1034F000280002F073F90023210028002670637071
:1035000002F056F91A4F302E0CD13B00E0330A225C
:103510002100186802F04AFF2100280002F048F953
:10352000E4370BE03B00D8330A222100186802F090
:103530003DFF2100280002F03BF9DC370A22210080
:10354000386802F033FF2800210002F031F928002A
:1035500002A902F02DF9280002F038F90023012019
:10356000FF356B700BB0F0BDB6200000BE3A000016
:1035700038070010F0B50C00164F174E85B03A0012
:1035800031000020FFF7A8FD144D3A00290000206B
:10359000FFF7A2FD124A69460020FFF79DFD02F0E9
:1035A000AFFA2000012102F019F93100200002F0E9
:1035B000FFF82900200002F0FBF86946200002F025
:1035C000F7F8200002F002F90120FF34607005B026
:1035D000F0BDC046B620000068070010E8070010E4
:1035E000BE3A000030B50D0085B010220400002165
:1035F000684602F025FD298C684600F095FD6B4673
:103600002000591D03F09EF80021200003F0A7F8C8
:1036100005B030BD30B50D0085B01022040000218A
:10362000684602F00DFDFA21084BA88B890058432B
:10363000FCF746FD0100684600F076FD6B46200071
:10364000991D03F07FF8200005B030BD3C07000055
:1036500070B504000D000623C85E0A21FCF730FD9A
:10366000303020700623E85E0A21FCF729FD303156
:1036700061700823E85E0A21FCF722FD3030A0705B
:103680000823E85E0A21FCF71BFD3031E170FA21C6
:10369000E8688900FCF714FDFA2130302071E868F1
:1036A0008900FCF70DFD08006421FCF709FD3030AE
:1036B0006071E8686421FCF703FD08000A21FCF74B
:1036C000FFFC3030A071E8680A21FCF7F9FC3031CA
:1036D000E1711223E85E6421FCF7F2FC30302072C5
:1036E0001223E85E6421FCF7EBFC08B20A21FCF728
:1036F000E7FC303060721223E85E0A21FCF7E0FC40
:103700003031A1721423E85E0A21FCF7D9FC303075
:10371000E0721423E85E0A21FCF7D2FC30312173F9
:10372000FA21A8698900FCF7CBFCFA2130306073DC
:10373000A8698900FCF7C4FC08006421FCF7C0FC00
:103740003030A073A8696421FCF7BAFC08000A2194
:10375000FCF7B6FC3030E073A8690A21FCF7B0FC36
:10376000200030311130217470BD70B54E1D040041
:103770000D00F07F0A21FCF7ABFC30302070F07FA9
:103780000A21FCF7A5FC3031AE1D6170F07F0A21E3
:10379000FCF79EFC3030A070F07F0A21FCF798FC0B
:1037A0003031EE1DE170F07F0A21FCF791FC3030E2
:1037B0002071F07F0A21FCF78BFC30316171287891
:1037C0000A21FCF785FC3030A07128780A21FCF72B
:1037D0007FFC3031E17168780A21FCF779FC3030E8
:1037E000207268780A21FCF773FC30316172A87886
:1037F0000A21FCF76DFC3030A072A8780A21FCF792
:1038000067FC200030310C30E17270BD10B5024908
:1038100002F098FF10BDC046B6200000F0B57F4B07
:103820000400081F93B01D68192800D9F4E004F0C3
:10383000EBF8A2F3F3F3F396B8E487F3F3F3F3F3BF
:10384000F30DF3F3F3C2C0C41AF3B60F7449E0E00A
:10385000744B01A91022D86902F0A8FD724920001A
:1038600002F070FFD4E005AD280001F011FD0AA8B8
:1038700001F000FD6D49200002F064FF00212000EE
:1038800002F06DFF6B786A4E3033441C03703100D8
:10389000200002F057FF0A2201A9A87B02F086FD52
:1038A00001A9200002F04EFF624F2000390002F013
:1038B00049FF0A2201A9E87B02F078FD01A9200056
:1038C00002F040FF3100200002F03CFF0A2201A973
:1038D000287C02F06BFD01A9200002F033FF3900C3
:1038E000200002F02FFF0A2201A9687C02F05EFD91
:1038F00001A9200002F026FF3100200002F022FF83
:103900000A2201A9A87C02F051FD01A9200002F0C1
:1039100019FF3900200002F015FF0A2201A9E87CF6
:1039200002F044FD01A9200002F00CFF310020004C
:1039300002F008FF45226B469B1818783B3A64E07A
:103940003D49200002F0FEFE7F239D43EDB2002D95
:1039500062D03A49200002F0F5FE324D17E03849B6
:10396000200002F0EFFEAB0556D53449200002F0EE
:10397000E9FE344D0BE03449200002F0E3FE334908
:10398000AB0646D53249200002F0DCFE314D102254
:1039900001A9A86902F00AFD0023AB6138E02E49B5
:1039A00037E0A0231B069B7D2C49002B31D02C49EE
:1039B0002FE02C492DE02C492BE02C49200002F06F
:1039C000C1FE2B4D2000290002F0BCFE184920004A
:1039D00002F0B8FE6B6C2A6C01A9981A0A2202F058
:1039E000E5FC01A9200002F0ADFE2249200002F012
:1039F000A9FE0A2201A9A86C08E01F49200002F0D4
:103A0000A1FE0A221D4B3220185E01A902F0CEFC55
:103A100001A9200002F096FE13B0F0BD04070010CB
:103A2000F03A000090060010F43A0000F93A000065
:103A3000652F00007F210000FE3A0000093B0000D6
:103A4000023B000054080010063B00001922000051
:103A5000213B0000340800100B3B00002F3B00000E
:103A6000293B00000F3B0000153B00001B3B000002
:103A7000B4060010203B0000243B00008808001022
:103A8000404745543B494E464F3B0054300052326C
:103A900032373700730047534D3A310047534D3AA0
:103AA00030004750533A31004750533A3000464CAB
:103AB0004153483A3100464C4153483A30002100C6
:103AC0003030303000424C4F434B41474520524547
:103AD0004D4F564520524551554553540A00424CCE
:103AE0004F434B41474520524551554553540A00D9
:103AF000303139003030463A003032353A0030301B
:103B00005800303043003030353A00303237003022
:103B100032343A31003032343A30003032363A0002
:103B20002C302C003030453A003030443A310030EF
:103B300030443A3000FFFFFFF7B505000C000427C2
:103B4000AB683B4216D0E16822692368914211D0EC
:103B50006268511E22691140A268514359186B4690
:103B6000DE1D300002F068FA2369013323613378E7
:103B7000EB61E5E7F7BDF8B5C3680F00466801697A
:103B800004005B1A0020B34231DAE3682169E0687F
:103B9000591A731E711A0340C8180D00B04200D3A1
:103BA000F51A2068491B954200DD1500561B8E4210
:103BB00000DD0E00A1680A004B436A43C0183900BB
:103BC00002F03AFAE3686068EB180138E360A16834
:103BD0001840A36869435843A268236872431818C1
:103BE000791802F029FAE368A8199B19E360F8BD77
:103BF000F8B5C268036904000F0000209A4231D072
:103C0000E3686068226921699A1A431E0B40D11843
:103C10001600814200D3C61A2168921B0125002E8E
:103C200000DD2E00AD1B954200DD1500A0680200EE
:103C300043437243C918380002F0FEF9A0682369B3
:103C40000200F11863682161013B19404143704350
:103C500023686A435918381802F0EEF9236970197D
:103C60005B192361F8BDF8B510233A4D04002E6AA4
:103C7000AA683601360F1A4203D0AB6043681B684E
:103C800098472023AA681A4209D0324A9360324BDF
:103C90001B78002B03D1636820001B69984780279D
:103CA0000222AB6813423ED02B4B1A78002A3AD03E
:103CB0002221625E002A0CD12100293109780029D5
:103CC00003D024498F601A7003E0636820005B68AA
:103CD00098472223E25E002AE2DDE368191E0AD03B
:103CE000082E02D91988023301E019780133E36004
:103CF000E38C0133E384013AE9616284D0E7012176
:103D0000AB680B4225D0A3685769002BF7D020225F
:103D1000A35E002B03D1636820009B689847202294
:103D2000A35E002B01DC0B4AE9E70C4B1F40A368A4
:103D3000082E03D91F80A368023302E01F70A36816
:103D40000133A360A38C0133A384238C013B238420
:103D5000E9E7F8BD0080054000050010FFFF1100F5
:103D6000030070B51A4C6385E023DB046362230013
:103D7000216125000121313319703435230065613B
:103D800000252285DE22200030331D70114B5200A9
:103D90001E680830324060601A60BE221E68FF3222
:103DA00032400A431A600C4A1A62F7221E6A120550
:103DB00032401A62E585A5852170FFF754FF230084
:103DC00044331A78002AFAD000221A7070BDC04617
:103DD000000500100080054000000F07F0B5052425
:103DE000D1B0FEF79DFFFA201E4E40003100FEF7D5
:103DF0006DFF80220021520010A802F021F91A4D17
:103E000010A8290002F09EFC184910A80F00C53127
:103E100002F098FC4537164910A802F093FC3900CF
:103E200010A802F08FFC134910A802F08BFC124975
:103E300010A802F08DF840213300C822684602F035
:103E4000B5F8290068460B3102F02EFD002805D197
:103E5000013CE4B2002CC4D1200000E0012051B0AC
:103E6000F0BDC046DD2200002C430000000500101C
:103E7000822100003A4300004343000003681A789F
:103E80002C2A05D0002A00D1FEE701330360F5E7B4
:103E90000133036070470121814010B5034C044A8F
:103EA000E36F13400B43E36710BDC046048004403A
:103EB000FFFFEF2510B504000720FFF7ECFF0123FB
:103EC000A0228E21A34012068901535000231355CE
:103ED000024A034BD16F0B40D36710BD04800440EE
:103EE0007FFFEF25F7B50427836805000C00160057
:103EF0003B4207D01100FFF71FFEF26833699A4278
:103F000000D12F610126AB68334217D06A466B6936
:103F1000D11D0B706068E36822699B1A8342F2DA54
:103F2000E36801381840A368A2685843236818184A
:103F300002F082F8E3680133E360E4E7F7BDF7B528
:103F40000F001D000423019206002A00036101995D
:103F50003800FFF710FE040039003000FFF7ECFDD9
:103F6000019B2A1B19193800FFF705FE04230019CD
:103F7000F360FEBD01238340054A0648516818439B
:103F8000814351605068044901400B4353607047BE
:103F9000008004400020FEFFFFDF010010B500207C
:103FA000FF240F4B19682140814217D00D4B9868B0
:103FB0001F2318400C4B01305843FCF789F80B4B7A
:103FC0001A681440FF2C09D1094B010E1A6800022F
:103FD0001440621CFF32002303F06AFB10BDC04690
:103FE0009480044000800440001BB700F08004402F
:103FF000F480044070B50C000500FFF7CFFF2101ED
:10400000FCF766F80138286270BD064B10B5986859
:10401000996F1F231840044B01305843C9B2FCF775
:1040200057F810BD00800440001BB70003000020BB
:1040300070B50B4D1A7812025040082206B24400A7
:10404000A0B2002E01DA6C40A0B2013AD2B2002A2E
:10405000F4D1013989B201330029EBD170BDC046DA
:1040600021100000044910B50A00044850326431A0
:10407000FFF738FF10BDC046800500100040064025
:104080001FB50A22694602F091F9684602F0B6FBB4
:10409000044903006A4650310348FFF750FF05B05A
:1040A00000BDC046800500100040064010B5040069
:1040B00002F0A4FB03490300220050310248FFF73D
:1040C0003EFF10BD80050010004006400D4A10B5AF
:1040D00013885188140099420DD8101D0A490022F6
:1040E000FEF784FC6080002802D00848FFF7DEFF5E
:1040F0000020208005E0591CD3181B791180037023
:10410000012010BD0C0F00101A04000052430000E3
:1041100010B504000348FFF7C9FF2000FFF7C6FFF2
:1041200010BDC046ED4D000000231A00F0B5084F49
:104130000D000F2425407E5D841AE6710909002DCB
:1041400000D013000132082AF2D1581CF0BDC0463D
:10415000614300007FB5002301AC0E00050023720F
:1041600002F04CFB074903002A0050310648FFF7D4
:10417000E6FE31002000FFF7D7FF201A0830FFF7D6
:1041800095FF7FBD8005001000400640BFF34F8FB4
:10419000024A034BDA60BFF34F8FFEE70400FA05D3
:1041A00000ED00E00D4B82B09B6F0193037A019903
:1041B000002B07D0026800238A420BD942688A424A
:1041C0009B4106E0426801238A4203D30368994277
:1041D0009B415B42180002B07047C046800500104A
:1041E000074B82B09B6F0193019BC918036041602C
:1041F000994201D3002300E00123037202B070470B
:1042000080050010F0B587B01C000CAB1B780E00C9
:10421000019302ABDD1C00232900300017002B7036
:10422000FFF7E6FC002801D1002022E02B78A34212
:10423000FAD13B70022103A8FFF7D2FF012403A8A3
:10424000FFF7B0FF0028EFD129003000FFF7D0FCC6
:104250000028F4D0022103A8FFF7C2FF802C03D866
:104260002A78631C3A559CB22B78019A9342E6D186
:10427000200007B0F0BD30B5214CC9B025007C3519
:1042800080220021280001F0DBFE02220021FF3203
:1042900007A801F0D5FE21232100009364310233E9
:1042A0002A001848FFF7AEFF002811D0022207A904
:1042B000280001F0D3F9012802D107A8FFF7F6FE84
:1042C0001C23FF336B445B78002B01D0FFF75EFFAC
:1042D0000D4C02AD7C3412222100280001F0ACFE0E
:1042E0006B78032B0AD12B78022B07D107A801F09A
:1042F00099FA07A8FFF7DAFE0023637049B030BDD2
:10430000800500100040064000060010024A936F2E
:10431000013393677047C04680050010A0231B0639
:10432000987B43425841C0B27047C0464154235322
:10433000443D312C302C004F4B00222C302C302CA3
:10434000310D000A436F6E6E656374696E672E2EC1
:104350002E00506167652072656365697665640A41
:1043600000303132333435363738394142434445F1
:104370004600FFFF054B9A6901329A61DA6E0132FD
:10438000DA66DA690132DA617047C04690060010D9
:1043900030B5C1B001A801F003FA0222094C64252E
:1043A000631CDA7700233D9920006943A361E36130
:1043B000FFF716FF200029000C30FFF711FF41B076
:1043C00030BDC04690060010F0B591B006006846BA
:1043D00000F048FF144D40222F00243706AC002186
:1043E000380001F02DFE200000F05EFF21003800B3
:1043F000FFF7BBF92100FFF72BF92100FFF70AF9BE
:104400002100FFF7EFF8217C07002079FEF760F923
:104410000023387004980599EB6602F0DBFF6866AC
:1044200070352E7011B0F0BD90060010024B586F21
:10443000431E9841C0B2704790060010012310B58A
:104440000C4CE169226A194201D0E36102E01A4290
:1044500000D02362A02308481B065B7C020059425F
:104460004B4178327C300A211370FFF7B9FE0123EB
:10447000636210BD004000A09006001030B5052515
:1044800085B0010001A8FFF7ABFE094C0222694686
:1044900010002570FFF764FC6B465B78DB0704D5E2
:1044A00001A8FFF77FFE0028F0D005B030BDC04660
:1044B0003405001010B5FFF731FF002804D001F0DB
:1044C00001FD064B020003E001F0FCFC0200044B7E
:1044D00018009A4201D901F0F5FC10BDDC0500007E
:1044E000905F0100F0B5E1B021A80FAD01F058F9DF
:1044F000280000F0BFFE17AC03A800F0C9FE2000A2
:1045000000F0D2FEC24AC34F517801291AD13B7A3A
:10451000002B22D1E378412B1FD1A08BBE4B43430C
:10452000BE481B18BE48834217D82B7F002B14D0DF
:104530006B7F042B11D9A0231B06D9740323B94820
:10454000537008E0022908D1A02300211B06D9746A
:104550000423B5485370FFF7A9FDB44A1600783616
:1045600073780092002B02D0012B0FD024E0337817
:10457000002B21D000987C30FFF714FE00281BD0C0
:10458000AB48FFF793FD0123737015E03378019377
:10459000002B11D100987C30FFF704FE00280BD0CF
:1045A000A448FFF783FD6B464021009A1B797532C2
:1045B000737013780B431370E3780193FFF7AEFE2B
:1045C0003B7E060083423AD0387600281BD0012675
:1045D0003E7201F027FD9848FFF768FDFFF76AFF7C
:1045E000010038001C30FFF7FBFD019B0020412B30
:1045F00000D03000FFF7E8FEFFF7CAFE009B202145
:1046000075331A7819E038728C48FFF74FFD01F0C6
:1046100009FDFFF74FFF010038001C30FFF7E0FDF8
:1046200008A800F01FFE0C980D9902F0D3FE10218F
:104630007E4BBE72986675331A780A431A705D9B7A
:104640000093002B5ED03B7A002B5BD002AB5B79F2
:10465000032B57D12B7F002B54D0794AA38BD27FC9
:10466000724E012A3BD0002A02D0022A1DD049E016
:10467000022B0CD90123724A7248D377FFF716FD3B
:104680008022743633785242134333703AE06748DD
:104690000C30FFF787FD002834D0FFF76BFE63482E
:1046A00064210C30FFF79CFD2CE0022B06D901237E
:1046B000634A6548D3770023B36121E03000FFF7F8
:1046C00071FD0028E3D04022743633785F481343ED
:1046D0003370FFF7EBFC0023594AD37712E0022B2B
:1046E00010D8300064210C30FFF77AFD6421009B64
:1046F00030005943FFF774FD0223514A5448D377E1
:10470000FFF7D4FCB32302AA5B009B181B88514E11
:10471000002B61D05379032B5ED12B7F002B5BD014
:10472000FA213D4BA08B340058438900FBF7C8FCAD
:10473000390040342278FE3180B24B8A012A32D0CF
:10474000002A02D0022A16D046E0984244D98B8A29
:10475000414800936425FFF7A9FC300000992430FC
:104760006943FFF73DFD300029003030FFF738FD89
:104770000223237030E0984203D800232370F363B0
:104780001CE030002430FFF70DFD002816D010216A
:10479000264B324874331A780A431A700123237067
:1047A000FFF784FC0AE0984208D8002320212370F8
:1047B0001E4B74331A780A431A700DE034003034FB
:1047C0002000FFF7EFFC002806D0F36B64210133D3
:1047D0002000F363FFF704FD3B00FC3399690029D7
:1047E00071D034004434237F012B5DD0002B02D0E4
:1047F000022B35D067E03B7A002B46D00123022103
:1048000023770A4B75331A780A431A705BE0C04667
:104810007C060010100700103C070000E7030000B2
:10482000CE070000F44C0000084D00009006001078
:104830001A4D00003A4D00005C4D0000664D00002E
:1048400091060010744D0000874D0000A94D000036
:10485000C54D000010080010DB4D0000EF4D0000BA
:104860003D7A002D04D0012323770023F3652AE04D
:104870002000FFF797FC002807D001213A4B25774D
:1048800075331A780A431A701DE034005034200042
:10489000FFF788FC002816D0F36D64210133200057
:1048A000F365FFF79DFC0EE03B7A002B0BD16425EE
:1048B00020006943FFF794FC300029005030FFF7D7
:1048C0008FFC02232377A0231B069C7D3500631EEB
:1048D0009C413300E4B2643365351C702B78A342ED
:1048E00008D03700300068376C300A21FFF778FCB9
:1048F0002C703C70340068346378002B02D0012B9C
:1049000016D02FE02378002B2CD030006C30FFF72E
:1049100049FC002826D0FA2378363221725E1B012A
:104920009A421FDD1148FFF7C1FB0123637013E0BA
:104930002578002D16D130006C30FFF733FC0028AD
:1049400010D0FA2378363221725E1B019A4209DCBC
:104950000748FFF7ABFB65700421034B75331A78EA
:104960000A431A7061B0F0BD90060010044E0000BA
:10497000134E0000F0B51700140087B08B18039099
:104980000293029B9C4230D023051B0D0193184DCE
:1049900014D100F0EFFD2023260B36032B70330CCF
:1049A0006B706B4604221B791000360A04A9AE70A6
:1049B000EB70FFF7D5F91E20FFF760FD039BDB1BB3
:1049C0001E5D00F0D7FD022305222B70230C100082
:1049D0006B7004A9230AAB70EC702E71FFF7C0F95D
:1049E0000220FFF74BFD0134CBE7200007B0F0BDFC
:1049F0003405001037B5050000F0BCFD012250233E
:104A00000A4C01A910002370FFF7AAF90220FFF752
:104A100035FD02220123100001A923706570FFF704
:104A20009FF90220FFF72AFD37BDC046340500106C
:104A300010B50020FFF7DEFFEC22064C1203042124
:104A4000201DFFF797FF63680820A360FFF7D2FFE0
:104A500010BDC046440C001073B52F4C2F4B256879
:104A6000A689A919994204D80B0B9AB2002B12D12E
:104A700001E000231A00290B89B2E02916D1236036
:104A800063681B0B9BB2002B21D180235B01636009
:104A9000FFF7CEFF1BE0E02B08D163681B0B9BB236
:104AA000E02B03D100230E00636010E02B0B9BB2C0
:104AB00093420AD263681B0B99B2914205D10B0055
:104AC00001331B036360FFF7B3FFA6897619250046
:104AD0000E35A18922682800FFF74CFF00200196BF
:104AE000FFF788FFEB220421120301A8FFF742FF22
:104AF0000820FFF77FFF616809482660FFF72AFB5F
:104B000021680848FFF726FB802200212800D200F8
:104B1000A18101F095FA73BD440C0010FF0F0E0047
:104B2000224E0000374E00008022F0B5224B85B0A7
:104B30009B89070006335B180C00D200934201D911
:104B4000FFF78AFF0822002102A801F079FA1A4E25
:104B5000A1B2B38938001D0008357519AA1D00924D
:104B60000222F3189A73FFF761FA0735A4B2220004
:104B700001903900280001F05FFA2C19019902A870
:104B8000FFF7D2FA042203A9200001F055FA03230B
:104B90002371002300986371FFF788FA009B0534A6
:104BA000E41A2000FFF76CFA0448FFF77FFAB58992
:104BB0002C19B48105B0F0BD440C00104D4E00001E
:104BC000F0B5CFB006AC200001AD00F053FB2800DB
:104BD00000F05EFB2D4E30003030FFF7E3FA002886
:104BE0000BD02B4B9A685B689A4201D0FFF720FFED
:104BF000300028493030FFF7F3FA274BA8331F78ED
:104C0000002F3BD1254E30001C30FFF7CBFA002897
:104C10001DD06B78032B13D1237F002B10D020489D
:104C2000FFF744FA8022390052000EA801F008FA7A
:104C300039000EA8FDF763FD01000EA8FFF774FF11
:104C4000FFF738FC010030001C30FFF7C9FA684656
:104C5000FFF7ECFB002817D01248FFF727FA802255
:104C6000002152000EA801F0EBF900210EA8FDF77B
:104C700046FD01000EA8FFF757FF05E0044B9B8996
:104C8000002B01D0FFF7E8FE4FB0F0BD90080010F8
:104C9000440C0010407E05001008001010070010A2
:104CA0005E4E0000704E000033B5150003220E4B1F
:104CB000FFB01A70020C5A70D870020A081D80B238
:104CC0009A700C0002006946FFF74AF80423033487
:104CD000A34205DC6946C95C1A1FA9540133F7E7F2
:104CE00000207FB036BDC0463405001010B5FBF77C
:104CF00097FE10BD424C4F434B4147452041435422
:104D00004956415445440A00424C4F434B414745A4
:104D10002052454D4F5645440A000A404040402E1F
:104D20002E2E2E2E53494D5F494E53455254454425
:104D30002E2E2E40404040400A000A404040402E67
:104D40002E2E2E2E2E53494D5F52454D4F56454423
:104D50002E2E2E2E2E40404040400A000A49474E3B
:104D6000495445440A000A4E4F545F49474E49543E
:104D700045440A004F7574206F662049444C452015
:104D800073746174650A0054696D656F757420628F
:104D9000656B6C65726B656E20686172656B6574BE
:104DA000206564696C64690A0049646C6520546913
:104DB0006D656F757420616C61726D69206F6C75C3
:104DC0007374750A0057616974696E672049646C71
:104DD000652054696D656F75740A0048697A206CA6
:104DE000696D697469206173696C64690D0A0048B2
:104DF000697A206C696D6974692074696D656F7575
:104E0000740D0A00504F5745525F4150504C494570
:104E1000440A00504F5745525F52454D4F56454446
:104E20000A000A4C6F672052656164204164647215
:104E3000657373203078000A4C6F6720577269746D
:104E40006520416464726573732030780020627954
:104E50007465732062756666657265640A000A4C43
:104E60004F47494E472047505320444154410A0080
:104E70000A4C4F47494E47204556454E540A00FFBD
:104E8000F0B50A2400232027A446C9B204680C4EBA
:104E900025787619803636783E420DD000290BD021
:104EA000664673432E00303EF318002D01D00134C6
:104EB00004600139C9B2E9E701201360F0BDC046C2
:104EC000C0610000F0B585B000910121002401927D
:104ED000494203AA05000394FFF7D2FF0600A0424F
:104EE00031D02B681A782E2A2CD101332B60052360
:104EF00020009C46DB1820272A68144C117864187F
:104F0000803424783C4210D00A2460430C00303CAA
:104F10002018002901D001322A600A2253430B3A9B
:104F200094446246002AE6D106E0FA2292009342B7
:104F300002D10A21FBF7C4F8039B009A1360019B7E
:104F4000186000E02600300005B0F0BDC061000030
:104F5000022330B585B00B70019001A80D00FEF75B
:104F60008DFF01A8FEF78AFF01A8FEF787FF01A8C1
:104F7000FEF784FF01A8FEF781FF01A8FEF77EFF80
:104F8000012103AA494201A8FFF77AFF041E03D0BA
:104F90002B00039A48331A7001A8FEF76FFF012116
:104FA00003AA494201A8FFF76BFF0440E0B20028C2
:104FB00002D0039B49352B7005B030BD7FB501236E
:104FC00001900B7001A80C00FEF758FF03AA022104
:104FD00001A8FFF755FF002801D0039B237103AA06
:104FE000022101A8FFF74CFF002801D0039B637149
:104FF00003AA022101A8FFF743FF002801D0039B69
:10500000A37101A8FEF73AFF019B494D1A78AB182E
:1050100080331B78DB0600D581E001A8FEF72EFF68
:1050200002AA03A901A8FFF74DFF00280CD0039E98
:1050300064213000FBF744F8642160813000FBF705
:105040003FF8029BA181236101A8FEF717FF019B96
:105050001A78AB1880331B78DB0662D401A8FEF700
:105060000DFF02AA03A901A8FFF72CFF00280CD00E
:10507000039E64213000FBF723F86421E0823000B6
:10508000FBF71EF8029B2183E36101A8FEF7F6FE01
:10509000019B1B78ED1880352A78D20643D401A8ED
:1050A000FEF7ECFE02AA03A901A8FFF70BFF0028F8
:1050B00003D0039B2384029B638401A8FEF7DEFEDA
:1050C00002AA03A901A8FFF7FDFE002803D0039B55
:1050D000A384029BE38401A8FEF7D0FE03AA022169
:1050E00001A8FFF7CDFE002803D02300039A283340
:1050F0001A7003AA022101A8FFF7C2FE002803D0FC
:105100002300039A29331A7003AA022101A8FFF78A
:10511000B7FE002809D0039B2A34237005E0E27112
:105120007BE722729AE72375B9E704B070BDC046E9
:10513000C06100000323F0B585B001900B7001A899
:105140000C00FEF79BFE019B1A78314B9B188033B5
:105150001D7810231D4001D0012500E02A00230006
:105160004C331A7001A8FEF789FE012103AA4942B7
:1051700001A8FFF785FE2300039A4D3305401A70FE
:1051800001A826002700FEF779FE4E365A37012186
:1051900003AA494201A8FFF773FE039B0540337041
:1051A00001A80136FEF76AFEBE42F0D102AA03A9A9
:1051B00001A8FFF787FE2840C5B2002D05D02300C7
:1051C000039A5A331A70029A5A7001A8FEF756FED3
:1051D00003A902AA01A8FFF775FE2300039A5C3316
:1051E0001A70029A06005A7001A8FEF747FE02AA3A
:1051F00003A901A8FFF766FE2300039A5E331A7025
:105200003040029B5F342840237005B0F0BDC0469B
:10521000C061000010B5034A03490448FEF762FE6E
:1052200010BDC046F40A0010E008001000800640DF
:10523000094B0A4A198C00204A4309498A420ADD6F
:105240001A0048321278824205D049331878042374
:105250008342804140427047A40B00103C0700008D
:10526000F72A000010B51822014900F0E5FE10BD34
:10527000080C0010020010B5044B2C3313CB13C2E2
:1052800013CB13C203CB03C210BDC046A40B001046
:10529000020010B5034B4C3313CB13C203CB03C234
:1052A00010BDC046A40B0010020010B5054B04331E
:1052B00013CB13C213CB13C213CB13C21B681360DF
:1052C00010BDC046A40B001010B5034A03490448A2
:1052D000FEF708FE10BDC04654100010900B0010E1
:1052E00000C00640F0B50026CBB04D4B07AA13CB4B
:1052F00013C21B684B4C136023684B4A4B4F13403F
:105300003E7010202360FEF7C6FD0520FEF732FE3A
:105310002268474B01251340464A0BA813432360DC
:10532000454B464A190014311160802189005160B3
:1053300095601661D660424A9D6014321A606422FC
:105340001E615A60DE6000F02BFA489901970095C3
:1053500027004B1C1BD02000FEF74CFE2368324A6E
:10536000384913402B4323606368374A374813405A
:10537000C1226360364BE56092009B580B40802150
:10538000C9010B4332498B5020230B603BE01422B0
:1053900002AB9B189C5923482100FEF72BFE3B686B
:1053A000214A28491340009A962013433B607B68AA
:1053B000254A40001340C1227B60009B9200FB60A5
:1053C000234B04369B580B408021C9010B432049D5
:1053D0008B5020230B601F49FDF778FC019B1D7843
:1053E000002D13D01C4BF4331C6000F089FB1B48CC
:1053F000FEF75CFE0A2203A9200000F0D7FF03A8F5
:10540000FEF754FE1648FEF751FE06E0102EBED100
:10541000FA2114484900FEF7E3FE28004BB0F0BD26
:105420006854000000C006407CDAFC00F80400105C
:1054300001DAFC000400400054100010900B001032
:1054400054120010FF00FFFF060301007854000013
:1054500000E100E0DD220000380700109354000056
:10546000ED4D0000D0080010C012000080250000A3
:10547000004B000000C2010056616C696420677037
:10548000732062617564207261746520666F756E49
:10549000640A0044657465637465642062617564C0
:1054A00020726174653A00FF0122014B1A70704747
:1054B00044050010704770477047704730B50400CE
:1054C000A3B00E48FEF7F2FD0D4D02A92A00200000
:1054D000FDF702FE2A0069462000FDF7FDFD02A946
:1054E000084801F069F96946074801F065F90122A9
:1054F0000220064B1A7023B030BDC046285E000063
:10550000B620000045050010C5050010DC0800109D
:1055100010B50C000548FEF7C9FD01212000FDF77C
:10552000EEF80023FF340120637010BD365E0000EA
:1055300030B5050091B002A80C0000F02FFD280046
:105540000A4A01A9FDF7C8FD094901A801F012F9AD
:105550000025A84207D1162120006944FF34FDF739
:10556000F5F965700135280011B030BDB620000096
:105570001922000007B50622054B01A91A70053A49
:105580001000FEF7EDFB0220FEF778FF07BDC046D6
:10559000340500109F2213B50A4B01AC1A709B3AD8
:1055A00010002100FEF7DCFB63780020012B07D1FF
:1055B000A378402B04D1E078143843425841C0B25C
:1055C00016BDC04634050010044B10B59A6A3D2341
:1055D0001A4202D00248FEF746FB10BD008005408B
:1055E0000805001037B5002419480194FEF75EFD48
:1055F0002000FFF7FFF9ED220421120301A8FFF7B5
:10560000B9F9EB220421120301A8FFF7B3F9EC2248
:105610000421120301A8FFF7ADF90E4DFC220E493B
:10562000280000F009FD230022002800C15C01339E
:105630005218F82BFAD10300F8331A60EE22FC213D
:105640001203FFF797F90820FFF7D4F937BDC046DA
:10565000485E000038070010A45C0000F0B50E00A2
:1056600085B03A490500170001F01EF9041E4BD021
:105670000D2101F074F8002801D0002303703A21B5
:10568000200001F06CF8324D002816D0314901F0AD
:105690001DF90C22411C0400684600F0CDFC2900D5
:1056A000684601F067F8002847D02B49684601F0AA
:1056B00061F8002841D0002045E0280001F09EF864
:1056C0000028F8D105342349200001F0FFF8051E19
:1056D00003D0200000F06EFF85B200231F4A1000A7
:1056E000D9007C30085AA8420AD104325218D36F2C
:1056F000310020009847082D25D1194B1F7022E05A
:105700000133112BEBD1D6E71649280001F0CCF874
:105710000028D0D02C000A340E49200001F0D6F821
:10572000002805D0200000F045FFC0B20028C2D1FB
:1057300031002000FDF75AFC05E0684601F05EF8F4
:1057400002302418BFE705B0F0BDC046CF2F0000DF
:10575000FE070010B62000005B5E0000245D000024
:105760007C060010615E00001FB5ED24019024034B
:105770000020FFF73FF92200042101A8FFF7FAF803
:105780000820FFF737F903AA04212000FFF78CFA5D
:10579000039B019A981A43425841C0B204B010BD0D
:1057A00010B5FC22014900F047FC10BD380700107D
:1057B00070B50D000400044900F0C4FF290020006A
:1057C00000F0C0FF70BDC046B620000010B5024911
:1057D00000F0B8FF10BDC046BE3A000030B504006E
:1057E00091B002A80D0000F0D9FB0C49200000F098
:1057F000E3FF16212000694400F0A4FF08492000BF
:1058000000F0A0FF0A2201A9280000F0CFFD01A9A5
:10581000200000F097FF11B030BDC0466B5E000065
:10582000B620000010B5040086B012220C4901A871
:1058300000F002FC20000821FFF7D0FF20000949FA
:10584000FFF7B6FF6B462000991DFFF7B1FF200060
:10585000FFF7BCFF200000F0D1FF06B010BDC0462E
:105860007C0600103222000030B5050085B0002013
:105870000C00FFF7BFF8FFF77DFE1348FEF716FC9C
:10588000C722124B69461A70C63A1000FEF768FA32
:105890000F48FEF7F3FD0F48FEF708FC0E4A694675
:1058A0002800FDF719FC20000C49FFF797FF694617
:1058B0002000FFF77DFF2000FFF788FF0120FF3465
:1058C000607005B030BDC046715E00003405001048
:1058D000DC0500007D5E0000BE3A0000E903000028
:1058E00070B504000D001A4EB2B0320004A9FDF7E5
:1058F000F3FB200032000AA9FDF7EEFB154A6946CA
:105900002000FDF7E9FB2B000024FF3312485C70F8
:10591000FEF7CCFB22000AA904A8FDF7CBF8A042B1
:1059200013D00E212800FFF759FF04A92800FFF724
:105930003FFF0AA92800FFF73BFF69462800FFF751
:1059400037FF2800FFF742FF0134200032B070BD5E
:10595000B6200000BE3A0000865E0000EE2070B562
:105960005B4CFC2122000003FFF79EF900231A0084
:10597000E15C01335218F82BFAD12300F8331B688D
:10598000934205D05348FEF791FBFFF72BFE18E03A
:10599000514A2378D31838228033197800231142D2
:1059A00000D18FE01A003032A25C2E2A03D00133DE
:1059B000802BF7D186E0494800F0FCFD002800D19B
:1059C00080E02000FEF7A4FB4548FEF7A1FB454818
:1059D000FEF79EFB4448FEF79BFB4448FEF798FB0E
:1059E0003E48FEF795FB4248FEF792FB2300D33377
:1059F0001878FEF745FB3F4D2800FEF757FB2300C4
:105A0000D4331878FEF73CFB2800FEF74FFB230049
:105A1000D5331878FEF734FB2800FEF747FB230048
:105A2000D6331878FEF72CFB2800FEF73FFB230047
:105A3000E8331888FEF724FB2800FEF737FB230025
:105A4000EA331888FEF71CFB2800FEF72FFB230023
:105A5000EC331868FEF714FB2800FEF727FB230041
:105A6000E0331868FEF70CFB2800FEF71FFB23004D
:105A7000E4331868FEF704FB2800FEF717FB230049
:105A8000D8331868FEF7FCFA2800FEF70FFB230056
:105A9000DC331868FEF7F4FA2800FEF707FB230052
:105AA000F0331868FEF7ECFA2800FEF7FFFA23003F
:105AB000F4331868F834FEF7E3FA21680E48FEF76D
:105AC00049FB70BDFC220D49200000F0B5FA78E7D3
:105AD00038070010925E0000C0610000E807001067
:105AE0005C07001050070010EE0700106807001058
:105AF000FE070010EC4D0000A55E0000A45C000055
:105B000000231A0010B50D4CE15C01335218F82B3C
:105B1000FAD123000020F8331A60FEF76BFFEE2263
:105B2000FC2112032000FEF725FF0820FEF762FF8C
:105B3000FFF714FF0248FEF7B9FA10BD380700104E
:105B4000B05E000030B5050089B00C00164A694609
:105B5000FDF7C2FA154A04A92800FDF7BDFA684608
:105B600000F028FD124DF4352860FFF7C9FF200032
:105B70002821FFF733FE0A226946286800F016FC48
:105B800069462000FFF714FE04A92000FFF710FE6D
:105B90002000FFF71BFEFFF7A5FB00230120FF34C9
